{
  "_format": "hh-sol-artifact-1",
  "contractName": "CRID",
  "sourceName": "contracts/core/CRID.sol",
  "abi": [
    {
      "inputs": [
        {
          "internalType": "address",
          "name": "_accessControl",
          "type": "address"
        }
      ],
      "stateMutability": "nonpayable",
      "type": "constructor"
    },
    {
      "inputs": [],
      "name": "InvalidAccessControlAddress",
      "type": "error"
    },
    {
      "inputs": [],
      "name": "InvalidAddress",
      "type": "error"
    },
    {
      "inputs": [],
      "name": "InvalidContract",
      "type": "error"
    },
    {
      "inputs": [],
      "name": "InvalidInput",
      "type": "error"
    },
    {
      "inputs": [],
      "name": "InvalidUser",
      "type": "error"
    },
    {
      "inputs": [],
      "name": "NotAdmin",
      "type": "error"
    },
    {
      "inputs": [],
      "name": "NotCoordinator",
      "type": "error"
    },
    {
      "inputs": [],
      "name": "NotStudent",
      "type": "error"
    },
    {
      "inputs": [],
      "name": "ReentrantCall",
      "type": "error"
    },
    {
      "inputs": [],
      "name": "SystemAlreadyInitialized",
      "type": "error"
    },
    {
      "inputs": [],
      "name": "SystemNotInitialized",
      "type": "error"
    },
    {
      "inputs": [],
      "name": "SystemPaused",
      "type": "error"
    },
    {
      "inputs": [],
      "name": "UnauthorizedAccess",
      "type": "error"
    },
    {
      "anonymous": false,
      "inputs": [
        {
          "indexed": true,
          "internalType": "string",
          "name": "contractName",
          "type": "string"
        },
        {
          "indexed": true,
          "internalType": "address",
          "name": "newAddress",
          "type": "address"
        },
        {
          "indexed": true,
          "internalType": "address",
          "name": "agent",
          "type": "address"
        }
      ],
      "name": "ContractUpdated",
      "type": "event"
    },
    {
      "anonymous": false,
      "inputs": [
        {
          "indexed": true,
          "internalType": "address",
          "name": "agent",
          "type": "address"
        }
      ],
      "name": "SystemInitialized",
      "type": "event"
    },
    {
      "anonymous": false,
      "inputs": [
        {
          "indexed": true,
          "internalType": "uint256",
          "name": "newVersion",
          "type": "uint256"
        },
        {
          "indexed": true,
          "internalType": "address",
          "name": "agent",
          "type": "address"
        }
      ],
      "name": "SystemUpgraded",
      "type": "event"
    },
    {
      "inputs": [],
      "name": "ACCESS_CONTROL",
      "outputs": [
        {
          "internalType": "contract ICRIDAccessControl",
          "name": "",
          "type": "address"
        }
      ],
      "stateMutability": "view",
      "type": "function"
    },
    {
      "inputs": [],
      "name": "accessControl",
      "outputs": [
        {
          "internalType": "contract CRIDAccessControl",
          "name": "",
          "type": "address"
        }
      ],
      "stateMutability": "view",
      "type": "function"
    },
    {
      "inputs": [
        {
          "internalType": "uint256",
          "name": "id",
          "type": "uint256"
        },
        {
          "internalType": "string",
          "name": "name",
          "type": "string"
        },
        {
          "internalType": "string",
          "name": "description",
          "type": "string"
        },
        {
          "internalType": "uint8",
          "name": "credits",
          "type": "uint8"
        },
        {
          "internalType": "uint16",
          "name": "maxStudents",
          "type": "uint16"
        }
      ],
      "name": "addCourse",
      "outputs": [],
      "stateMutability": "nonpayable",
      "type": "function"
    },
    {
      "inputs": [
        {
          "internalType": "address",
          "name": "student",
          "type": "address"
        },
        {
          "internalType": "uint256",
          "name": "courseId",
          "type": "uint256"
        },
        {
          "internalType": "uint8",
          "name": "grade",
          "type": "uint8"
        }
      ],
      "name": "addGrade",
      "outputs": [],
      "stateMutability": "nonpayable",
      "type": "function"
    },
    {
      "inputs": [
        {
          "internalType": "uint256",
          "name": "requestId",
          "type": "uint256"
        }
      ],
      "name": "approveEnrollmentRequest",
      "outputs": [],
      "stateMutability": "nonpayable",
      "type": "function"
    },
    {
      "inputs": [
        {
          "internalType": "uint256",
          "name": "requestId",
          "type": "uint256"
        }
      ],
      "name": "cancelEnrollmentRequest",
      "outputs": [],
      "stateMutability": "nonpayable",
      "type": "function"
    },
    {
      "inputs": [],
      "name": "courseManager",
      "outputs": [
        {
          "internalType": "contract ICourseManager",
          "name": "",
          "type": "address"
        }
      ],
      "stateMutability": "view",
      "type": "function"
    },
    {
      "inputs": [],
      "name": "enrollmentRequest",
      "outputs": [
        {
          "internalType": "contract IEnrollmentRequest",
          "name": "",
          "type": "address"
        }
      ],
      "stateMutability": "view",
      "type": "function"
    },
    {
      "inputs": [
        {
          "internalType": "uint256",
          "name": "courseId",
          "type": "uint256"
        }
      ],
      "name": "getCourse",
      "outputs": [
        {
          "components": [
            {
              "internalType": "uint256",
              "name": "id",
              "type": "uint256"
            },
            {
              "internalType": "string",
              "name": "name",
              "type": "string"
            },
            {
              "internalType": "string",
              "name": "description",
              "type": "string"
            },
            {
              "internalType": "uint16",
              "name": "credits",
              "type": "uint16"
            },
            {
              "internalType": "uint16",
              "name": "maxStudents",
              "type": "uint16"
            },
            {
              "internalType": "bool",
              "name": "isActive",
              "type": "bool"
            }
          ],
          "internalType": "struct ICourseManager.Course",
          "name": "course",
          "type": "tuple"
        }
      ],
      "stateMutability": "view",
      "type": "function"
    },
    {
      "inputs": [
        {
          "internalType": "uint256",
          "name": "requestId",
          "type": "uint256"
        }
      ],
      "name": "getEnrollmentRequest",
      "outputs": [
        {
          "components": [
            {
              "internalType": "address",
              "name": "student",
              "type": "address"
            },
            {
              "internalType": "uint256",
              "name": "requestDate",
              "type": "uint256"
            },
            {
              "internalType": "enum IEnrollmentRequest.RequestStatus",
              "name": "status",
              "type": "uint8"
            },
            {
              "internalType": "uint256",
              "name": "id",
              "type": "uint256"
            },
            {
              "internalType": "uint256",
              "name": "courseId",
              "type": "uint256"
            }
          ],
          "internalType": "struct IEnrollmentRequest.Request",
          "name": "request",
          "type": "tuple"
        }
      ],
      "stateMutability": "view",
      "type": "function"
    },
    {
      "inputs": [
        {
          "internalType": "address",
          "name": "studentAddress",
          "type": "address"
        }
      ],
      "name": "getEnrollmentRequestsByStudent",
      "outputs": [
        {
          "internalType": "uint256[]",
          "name": "requestIds",
          "type": "uint256[]"
        }
      ],
      "stateMutability": "view",
      "type": "function"
    },
    {
      "inputs": [],
      "name": "getEnrollmentRequestsCount",
      "outputs": [
        {
          "internalType": "uint256",
          "name": "count",
          "type": "uint256"
        }
      ],
      "stateMutability": "view",
      "type": "function"
    },
    {
      "inputs": [
        {
          "internalType": "address",
          "name": "student",
          "type": "address"
        },
        {
          "internalType": "uint256",
          "name": "courseId",
          "type": "uint256"
        }
      ],
      "name": "getGrade",
      "outputs": [
        {
          "internalType": "uint8",
          "name": "grade",
          "type": "uint8"
        }
      ],
      "stateMutability": "view",
      "type": "function"
    },
    {
      "inputs": [
        {
          "internalType": "uint256",
          "name": "courseId",
          "type": "uint256"
        }
      ],
      "name": "getGradesByCourse",
      "outputs": [
        {
          "internalType": "address[]",
          "name": "studentIds",
          "type": "address[]"
        },
        {
          "internalType": "uint8[]",
          "name": "grades",
          "type": "uint8[]"
        }
      ],
      "stateMutability": "view",
      "type": "function"
    },
    {
      "inputs": [
        {
          "internalType": "address",
          "name": "student",
          "type": "address"
        }
      ],
      "name": "getGradesByStudent",
      "outputs": [
        {
          "internalType": "uint256[]",
          "name": "courseIds",
          "type": "uint256[]"
        },
        {
          "internalType": "uint8[]",
          "name": "grades",
          "type": "uint8[]"
        }
      ],
      "stateMutability": "view",
      "type": "function"
    },
    {
      "inputs": [
        {
          "internalType": "address",
          "name": "studentAddress",
          "type": "address"
        }
      ],
      "name": "getStudentByAddress",
      "outputs": [
        {
          "components": [
            {
              "internalType": "string",
              "name": "id",
              "type": "string"
            },
            {
              "internalType": "string",
              "name": "fullName",
              "type": "string"
            },
            {
              "internalType": "string",
              "name": "email",
              "type": "string"
            },
            {
              "internalType": "string",
              "name": "program",
              "type": "string"
            },
            {
              "internalType": "uint16",
              "name": "enrollmentYear",
              "type": "uint16"
            },
            {
              "internalType": "bool",
              "name": "isActive",
              "type": "bool"
            }
          ],
          "internalType": "struct IStudentRegistry.Student",
          "name": "student",
          "type": "tuple"
        }
      ],
      "stateMutability": "view",
      "type": "function"
    },
    {
      "inputs": [
        {
          "internalType": "string",
          "name": "studentId",
          "type": "string"
        }
      ],
      "name": "getStudentById",
      "outputs": [
        {
          "components": [
            {
              "internalType": "string",
              "name": "id",
              "type": "string"
            },
            {
              "internalType": "string",
              "name": "fullName",
              "type": "string"
            },
            {
              "internalType": "string",
              "name": "email",
              "type": "string"
            },
            {
              "internalType": "string",
              "name": "program",
              "type": "string"
            },
            {
              "internalType": "uint16",
              "name": "enrollmentYear",
              "type": "uint16"
            },
            {
              "internalType": "bool",
              "name": "isActive",
              "type": "bool"
            }
          ],
          "internalType": "struct IStudentRegistry.Student",
          "name": "student",
          "type": "tuple"
        }
      ],
      "stateMutability": "view",
      "type": "function"
    },
    {
      "inputs": [],
      "name": "getSystemStatus",
      "outputs": [
        {
          "internalType": "bool",
          "name": "initialized",
          "type": "bool"
        },
        {
          "internalType": "bool",
          "name": "paused",
          "type": "bool"
        },
        {
          "internalType": "uint256",
          "name": "version",
          "type": "uint256"
        },
        {
          "internalType": "uint256",
          "name": "totalStudents",
          "type": "uint256"
        },
        {
          "internalType": "uint256",
          "name": "totalRequests",
          "type": "uint256"
        }
      ],
      "stateMutability": "view",
      "type": "function"
    },
    {
      "inputs": [],
      "name": "gradeManager",
      "outputs": [
        {
          "internalType": "contract IGradeManager",
          "name": "",
          "type": "address"
        }
      ],
      "stateMutability": "view",
      "type": "function"
    },
    {
      "inputs": [
        {
          "internalType": "address",
          "name": "_studentRegistry",
          "type": "address"
        },
        {
          "internalType": "address",
          "name": "_courseManager",
          "type": "address"
        },
        {
          "internalType": "address",
          "name": "_enrollmentRequest",
          "type": "address"
        },
        {
          "internalType": "address",
          "name": "_gradeManager",
          "type": "address"
        }
      ],
      "name": "initializeSystem",
      "outputs": [],
      "stateMutability": "nonpayable",
      "type": "function"
    },
    {
      "inputs": [
        {
          "internalType": "string",
          "name": "id",
          "type": "string"
        },
        {
          "internalType": "string",
          "name": "fullName",
          "type": "string"
        },
        {
          "internalType": "string",
          "name": "email",
          "type": "string"
        },
        {
          "internalType": "string",
          "name": "program",
          "type": "string"
        },
        {
          "internalType": "uint16",
          "name": "enrollmentYear",
          "type": "uint16"
        }
      ],
      "name": "registerStudent",
      "outputs": [],
      "stateMutability": "nonpayable",
      "type": "function"
    },
    {
      "inputs": [
        {
          "internalType": "uint256",
          "name": "requestId",
          "type": "uint256"
        }
      ],
      "name": "rejectEnrollmentRequest",
      "outputs": [],
      "stateMutability": "nonpayable",
      "type": "function"
    },
    {
      "inputs": [
        {
          "internalType": "uint256",
          "name": "gradeId",
          "type": "uint256"
        }
      ],
      "name": "removeGrade",
      "outputs": [],
      "stateMutability": "nonpayable",
      "type": "function"
    },
    {
      "inputs": [
        {
          "internalType": "uint256",
          "name": "courseId",
          "type": "uint256"
        }
      ],
      "name": "requestEnrollment",
      "outputs": [],
      "stateMutability": "nonpayable",
      "type": "function"
    },
    {
      "inputs": [
        {
          "internalType": "uint256",
          "name": "courseId",
          "type": "uint256"
        },
        {
          "internalType": "bool",
          "name": "isActive",
          "type": "bool"
        }
      ],
      "name": "setCourseStatus",
      "outputs": [],
      "stateMutability": "nonpayable",
      "type": "function"
    },
    {
      "inputs": [
        {
          "internalType": "string",
          "name": "studentId",
          "type": "string"
        },
        {
          "internalType": "bool",
          "name": "isActive",
          "type": "bool"
        }
      ],
      "name": "setStudentStatus",
      "outputs": [],
      "stateMutability": "nonpayable",
      "type": "function"
    },
    {
      "inputs": [],
      "name": "studentRegistry",
      "outputs": [
        {
          "internalType": "contract IStudentRegistry",
          "name": "",
          "type": "address"
        }
      ],
      "stateMutability": "view",
      "type": "function"
    },
    {
      "inputs": [],
      "name": "systemInitialized",
      "outputs": [
        {
          "internalType": "bool",
          "name": "",
          "type": "bool"
        }
      ],
      "stateMutability": "view",
      "type": "function"
    },
    {
      "inputs": [],
      "name": "systemVersion",
      "outputs": [
        {
          "internalType": "uint256",
          "name": "",
          "type": "uint256"
        }
      ],
      "stateMutability": "view",
      "type": "function"
    },
    {
      "inputs": [
        {
          "internalType": "string",
          "name": "contractName",
          "type": "string"
        },
        {
          "internalType": "address",
          "name": "newAddress",
          "type": "address"
        }
      ],
      "name": "updateContract",
      "outputs": [],
      "stateMutability": "nonpayable",
      "type": "function"
    },
    {
      "inputs": [
        {
          "internalType": "uint256",
          "name": "id",
          "type": "uint256"
        },
        {
          "internalType": "string",
          "name": "name",
          "type": "string"
        },
        {
          "internalType": "string",
          "name": "description",
          "type": "string"
        },
        {
          "internalType": "uint8",
          "name": "credits",
          "type": "uint8"
        },
        {
          "internalType": "uint16",
          "name": "maxStudents",
          "type": "uint16"
        }
      ],
      "name": "updateCourse",
      "outputs": [],
      "stateMutability": "nonpayable",
      "type": "function"
    },
    {
      "inputs": [],
      "name": "upgradeSystem",
      "outputs": [],
      "stateMutability": "nonpayable",
      "type": "function"
    }
  ],
  "bytecode": "0x60a03461011e57601f61473d38819003918201601f19168301916001600160401b038311848410176101235780849260209460405283398101031261011e57516001600160a01b0381169081900361011e57801561010d57600180546001600160a01b031916821781556000819055608091909152600655604051614603908161013a823960805181818161028c015281816103a7015281816106ca01528181610c9001528181611073015281816113c5015281816114c5015281816115e5015281816119280152818161197e01528181612170015281816126b70152818161295e01528181612c1c0152818161313b0152818161323b015281816134f3015281816139e10152613ae10152f35b6340c4525b60e11b60005260046000fd5b600080fd5b634e487b7160e01b600052604160045260246000fdfe608080604052600436101561001357600080fd5b600090813560e01c9081630206850b1461402f5750806302e47912146140065780630b91e28d14613e3d57806313007d5514613e1457806313ba27ce14613c4e57806319575864146138d75780631c930fa51461383b5780632dd3ea3e1461347d5780633b9968671461332b57806348657188146130165780634b4f710a14612fed5780634b5678d114612daa57806350c1d19d14612be6578063581f82231461293d57806362a63e7e14612690578063697a60b3146123f65780636cc6cd001461214f57806379d5ae6d14611f3c57806384f609ca14611c4f5780638f6952c9146119575780639269db361461191257806392c16fb5146118e957806398a04d4c146118c05780639c872d2e146115b55780639f3da5cc1461131c578063a826b9e314611052578063b49595c914610c53578063be15a42114610959578063d26369021461093b578063ed7ad82614610681578063f6bc8efe146104a65763f816b2461461018157600080fd5b3461025a57602036600319011261025a5761019a6140d2565b60ff60055460a01c1615610497576001600160a01b0316903382141580610397575b8061027c575b61026d578060018060a01b036004541692602460405180958193637c0b592360e11b835260048301525afa908115610261578091610215575b60405160208082528190610211908201856140fe565b0390f35b90503d8082843e61022681846142ac565b82019160208184031261025d578051916001600160401b03831161025a5750916102549161021193016143db565b386101fb565b80fd5b5080fd5b604051903d90823e3d90fd5b631a27eac360e11b8152600490fd5b50604051631d6c8e3f60e21b81527f00000000000000000000000000000000000000000000000000000000000000006001600160a01b031690602081600481855afa90811561038c578391610353575b50604051632474521560e21b815260048101919091523360248201529060209082908180604481015b03915afa90811561034857829161030e575b50156101c2565b90506020813d602011610340575b81610329602093836142ac565b8101031261025d5761033a90614330565b38610307565b3d915061031c565b6040513d84823e3d90fd5b90506020813d602011610384575b8161036e602093836142ac565b8101031261037f57516102f56102cc565b600080fd5b3d9150610361565b6040513d85823e3d90fd5b50604051636b366cb560e01b81527f00000000000000000000000000000000000000000000000000000000000000006001600160a01b031690602081600481855afa90811561038c578391610463575b50604051632474521560e21b815260048101919091523360248201529060209082908180604481015b03915afa908115610348578291610429575b50156101bc565b90506020813d60201161045b575b81610444602093836142ac565b8101031261025d5761045590614330565b38610422565b3d9150610437565b90506020813d60201161048f575b8161047e602093836142ac565b8101031261037f57516104106103e7565b3d9150610471565b63028c4d0760e01b8252600482fd5b503461025a57604036600319011261025a576104c06140d2565b906024356005549260ff8460a01c16156106725760025460405163c3c5a54760e01b81526001600160a01b039283166004820181905292909160209183916024918391165afa90811561062d578491610638575b50156105e0576003546040516301a5a06760e11b81526004810184905290602090829060249082906001600160a01b03165afa90811561062d5784916105ef575b50156105e0579060446020926040519586938492637b5e477f60e11b84526004840152602483015260018060a01b03165afa9081156102615780916105a3575b60208260ff60405191168152f35b90506020823d6020116105d8575b816105be602093836142ac565b8101031261025a57506105d2602091614368565b38610595565b3d91506105b1565b63b4fa3fb360e01b8352600483fd5b90506020813d602011610625575b8161060a602093836142ac565b810103126106215761061b90614330565b38610555565b8380fd5b3d91506105fd565b6040513d86823e3d90fd5b90506020813d60201161066a575b81610653602093836142ac565b810103126106215761066490614330565b38610514565b3d9150610646565b63028c4d0760e01b8352600483fd5b503461025a57602036600319011261025a576004356001600160401b03811161025d576106b2903690600401614132565b6106ba6144d3565b50604051636b366cb560e01b81527f00000000000000000000000000000000000000000000000000000000000000006001600160a01b031690602081600481855afa9081156108bf578591610908575b50604051632474521560e21b81526004810191909152336024820152602081604481855afa9081156108bf5785916108ca575b501590816107e7575b506107d85760ff60055460a01c1615610672576002546040516376bd6c1360e11b81526020600482015292849284926001600160a01b03169183918291610791916024840191614438565b03915afa908115610348578261021193926107b5575b5050604051918291826141e0565b6107d192503d8091833e6107c981836142ac565b810190614507565b38806107a7565b631a27eac360e11b8352600483fd5b604051631d6c8e3f60e21b8152909150602081600481855afa9081156108bf57859161088b575b50604051632474521560e21b815260048101919091523360248201529060209082908180604481015b03915afa90811561062d578491610851575b501538610746565b90506020813d602011610883575b8161086c602093836142ac565b810103126106215761087d90614330565b38610849565b3d915061085f565b90506020813d6020116108b7575b816108a6602093836142ac565b8101031261037f575161083761080e565b3d9150610899565b6040513d87823e3d90fd5b90506020813d602011610900575b816108e5602093836142ac565b810103126108fc576108f690614330565b3861073d565b8480fd5b3d91506108d8565b90506020813d602011610933575b81610923602093836142ac565b8101031261037f5751602061070a565b3d9150610916565b503461025a578060031936011261025a576020600654604051908152f35b503461025a57602036600319011261025a5760015460405163f7be43fb60e01b815260048035926001600160a01b03169190602090829081855afa90811561062d578491610c20575b50604051632474521560e21b81526004810191909152336024820152602081604481855afa90811561062d578491610be6575b5015610bd757602060049160405192838092635c975abb60e01b82525afa90811561038c578391610b9d575b50610b8e5760ff60055460a01c16156104975760025460405163095f7b8960e01b815233600482015290602090829060249082906001600160a01b03165afa90811561038c578391610b54575b5015610b45576003546040516301a5a06760e11b81526004810183905290602090829060249082906001600160a01b03165afa90811561038c578391610b07575b5015610af8576004548291906001600160a01b0316803b15610af457604051635855570360e11b8152600481019290925233602483015282908290818381604481015b03925af1801561034857610ae35750f35b81610aed916142ac565b61025a5780f35b5050fd5b63b4fa3fb360e01b8252600482fd5b90506020813d602011610b3d575b81610b22602093836142ac565b81010312610b3957610b3390614330565b38610a8f565b8280fd5b3d9150610b15565b631a27eac360e11b8252600482fd5b90506020813d602011610b86575b81610b6f602093836142ac565b81010312610b3957610b8090614330565b38610a4e565b3d9150610b62565b6301ca793160e61b8252600482fd5b90506020813d602011610bcf575b81610bb8602093836142ac565b81010312610b3957610bc990614330565b38610a01565b3d9150610bab565b63971730a960e01b8352600483fd5b90506020813d602011610c18575b81610c01602093836142ac565b8101031261062157610c1290614330565b386109d5565b3d9150610bf4565b90506020813d602011610c4b575b81610c3b602093836142ac565b8101031261037f575160206109a2565b3d9150610c2e565b503461025a57606036600319011261025a57610c6d6140d2565b90602435916044359060ff8216809203610b3957604051636b366cb560e01b81527f00000000000000000000000000000000000000000000000000000000000000006001600160a01b031690602081600481855afa9081156108bf57859161101f575b50604051632474521560e21b81526004810191909152336024820152602081604481855afa9081156108bf578591610fe5575b50159081610f0d575b506107d857600154604051635c975abb60e01b815290602090829060049082906001600160a01b03165afa90811561062d578491610ed3575b50610ec4576005549360ff8560a01c1615610eb55760025460405163c3c5a54760e01b81526001600160a01b039384166004820181905293909160209183916024918391165afa9081156108bf578591610e7b575b5015610e32576003546040516301a5a06760e11b81526004810183905290602090829060249082906001600160a01b03165afa9081156108bf578591610e41575b5015610e325792938493906001600160a01b0316803b156108fc578492836084926040519687958694632a4a73fb60e01b86526004860152602485015260448401523360648401525af1801561034857610ae35750f35b63b4fa3fb360e01b8452600484fd5b90506020813d602011610e73575b81610e5c602093836142ac565b810103126108fc57610e6d90614330565b38610ddb565b3d9150610e4f565b90506020813d602011610ead575b81610e96602093836142ac565b810103126108fc57610ea790614330565b38610d9a565b3d9150610e89565b63028c4d0760e01b8452600484fd5b6301ca793160e61b8352600483fd5b90506020813d602011610f05575b81610eee602093836142ac565b8101031261062157610eff90614330565b38610d45565b3d9150610ee1565b604051631d6c8e3f60e21b8152909150602081600481855afa9081156108bf578591610fb1575b50604051632474521560e21b815260048101919091523360248201529060209082908180604481015b03915afa90811561062d578491610f77575b501538610d0c565b90506020813d602011610fa9575b81610f92602093836142ac565b8101031261062157610fa390614330565b38610f6f565b3d9150610f85565b90506020813d602011610fdd575b81610fcc602093836142ac565b8101031261037f5751610f5d610f34565b3d9150610fbf565b90506020813d602011611017575b81611000602093836142ac565b810103126108fc5761101190614330565b38610d03565b3d9150610ff3565b90506020813d60201161104a575b8161103a602093836142ac565b8101031261037f57516020610cd0565b3d915061102d565b503461025a57602036600319011261025a57604051636b366cb560e01b81527f00000000000000000000000000000000000000000000000000000000000000006001600160a01b031690602081600481855afa90811561038c5783916112e9575b50604051632474521560e21b81526004810191909152336024820152602081604481855afa90811561038c5783916112af575b501590816111d7575b5061026d57600154604051635c975abb60e01b815290602090829060049082906001600160a01b03165afa90811561034857829161119d575b5061118e5760ff60055460a01c161561117f5760045481906001600160a01b0316803b1561117c5760405163c4bf6ecb60e01b81526004803590820152336024820152908290829081838160448101610ad2565b50fd5b63028c4d0760e01b8152600490fd5b6301ca793160e61b8152600490fd5b90506020813d6020116111cf575b816111b8602093836142ac565b8101031261025d576111c990614330565b38611128565b3d91506111ab565b604051631d6c8e3f60e21b8152909150602081600481855afa90811561038c57839161127b575b50604051632474521560e21b815260048101919091523360248201529060209082908180604481015b03915afa908115610348578291611241575b5015386110ef565b90506020813d602011611273575b8161125c602093836142ac565b8101031261025d5761126d90614330565b38611239565b3d915061124f565b90506020813d6020116112a7575b81611296602093836142ac565b8101031261037f57516112276111fe565b3d9150611289565b90506020813d6020116112e1575b816112ca602093836142ac565b81010312610b39576112db90614330565b386110e6565b3d91506112bd565b90506020813d602011611314575b81611304602093836142ac565b8101031261037f575160206110b3565b3d91506112f7565b503461025a57602036600319011261025a576113366140d2565b61133e6144d3565b5060ff60055460a01c1615610497576001600160a01b031633811415806114b5575b806113b5575b610b45576002546040516327cf697360e21b815260048101929092528290829060249082906001600160a01b03165afa908115610348578261021193926107b5575050604051918291826141e0565b50604051631d6c8e3f60e21b81527f00000000000000000000000000000000000000000000000000000000000000006001600160a01b031690602081600481855afa90811561062d578491611481575b50604051632474521560e21b815260048101919091523360248201529060209082908180604481015b03915afa90811561038c578391611447575b5015611366565b90506020813d602011611479575b81611462602093836142ac565b81010312610b395761147390614330565b38611440565b3d9150611455565b90506020813d6020116114ad575b8161149c602093836142ac565b8101031261037f575161142e611405565b3d915061148f565b50604051636b366cb560e01b81527f00000000000000000000000000000000000000000000000000000000000000006001600160a01b031690602081600481855afa90811561062d578491611581575b50604051632474521560e21b815260048101919091523360248201529060209082908180604481015b03915afa90811561038c578391611547575b5015611360565b90506020813d602011611579575b81611562602093836142ac565b81010312610b395761157390614330565b38611540565b3d9150611555565b90506020813d6020116115ad575b8161159c602093836142ac565b8101031261037f575161152e611505565b3d915061158f565b503461025a57604036600319011261025a57600435906115d36141d1565b604051636b366cb560e01b81529092907f00000000000000000000000000000000000000000000000000000000000000006001600160a01b031690602081600481855afa90811561062d57849161188d575b50604051632474521560e21b81526004810191909152336024820152602081604481855afa90811561062d578491611853575b5015908161177b575b50610b4557600154604051635c975abb60e01b815290602090829060049082906001600160a01b03165afa90811561038c578391611741575b50610b8e5760ff60055460a01c1615610497578192600014611703576003546001600160a01b0316803b15610af457604051632f29863960e21b8152600481019290925233602483015282908290818381604481015b03925af1801561034857610ae357505080f35b6003546001600160a01b0316803b15610af45760405163f6e18fed60e01b8152600481019290925233602483015282908290818381604481016116f0565b90506020813d602011611773575b8161175c602093836142ac565b81010312610b395761176d90614330565b3861169a565b3d915061174f565b604051631d6c8e3f60e21b8152909150602081600481855afa90811561062d57849161181f575b50604051632474521560e21b815260048101919091523360248201529060209082908180604481015b03915afa90811561038c5783916117e5575b501538611661565b90506020813d602011611817575b81611800602093836142ac565b81010312610b395761181190614330565b386117dd565b3d91506117f3565b90506020813d60201161184b575b8161183a602093836142ac565b8101031261037f57516117cb6117a2565b3d915061182d565b90506020813d602011611885575b8161186e602093836142ac565b810103126106215761187f90614330565b38611658565b3d9150611861565b90506020813d6020116118b8575b816118a8602093836142ac565b8101031261037f57516020611625565b3d915061189b565b503461025a578060031936011261025a576004546040516001600160a01b039091168152602090f35b503461025a578060031936011261025a576002546040516001600160a01b039091168152602090f35b503461025a578060031936011261025a576040517f00000000000000000000000000000000000000000000000000000000000000006001600160a01b03168152602090f35b503461025a576119663661415f565b604051636b366cb560e01b81529597969295929491927f00000000000000000000000000000000000000000000000000000000000000006001600160a01b031690602081600481855afa908115611bd7578991611c1c575b50604051632474521560e21b81526004810191909152336024820152602081604481855afa908115611bd7578991611be2575b50159081611aff575b50611af057600154604051635c975abb60e01b815290602090829060049082906001600160a01b03165afa908115611ae5578891611aa7575b50611a985760ff60055460a01c1615611a8957600354969788976001600160a01b031693843b15611a855788968793610ad2926040519a8b998a988997632fa4b72f60e11b8952339660048a01614459565b8880fd5b63028c4d0760e01b8752600487fd5b6301ca793160e61b8752600487fd5b90506020813d602011611add575b81611ac2602093836142ac565b81010312611ad957611ad390614330565b38611a33565b8780fd5b3d9150611ab5565b6040513d8a823e3d90fd5b631a27eac360e11b8752600487fd5b604051631d6c8e3f60e21b8152909150602081600481855afa908115611bd7578991611ba3575b50604051632474521560e21b815260048101919091523360248201529060209082908180604481015b03915afa908115611ae5578891611b69575b5015386119fa565b90506020813d602011611b9b575b81611b84602093836142ac565b81010312611ad957611b9590614330565b38611b61565b3d9150611b77565b90506020813d602011611bcf575b81611bbe602093836142ac565b8101031261037f5751611b4f611b26565b3d9150611bb1565b6040513d8b823e3d90fd5b90506020813d602011611c14575b81611bfd602093836142ac565b81010312611a8557611c0e90614330565b386119f1565b3d9150611bf0565b90506020813d602011611c47575b81611c37602093836142ac565b8101031261037f575160206119be565b3d9150611c2a565b503461025a5760a036600319011261025a576004356001600160401b03811161025d57611c80903690600401614132565b91906024356001600160401b038111610b3957611ca1903690600401614132565b6044929192356001600160401b0381116108fc57611cc3903690600401614132565b90926064356001600160401b038111611f3857611ce4903690600401614132565b92909760843561ffff8116809103611a855760015460405163f7be43fb60e01b81526001600160a01b0390911690602081600481855afa908115611efa578b91611f05575b50604051632474521560e21b81526004810191909152336024820152602081604481855afa908115611efa578b91611ec0575b5015611eb157602060049160405192838092635c975abb60e01b82525afa908115611ea6578a91611e68575b50611e595760ff60055460a01c1615611e4a5760025498998a996001600160a01b031695863b15611e46578a9889956040519b8c9a8b998a98631da82a6b60e31b8a523360048b015260248a0160e0905260e48a0190611de792614438565b906003198983030160448a0152611dfd92614438565b90600319878303016064880152611e1392614438565b90600319858303016084860152611e2992614438565b9060a48301523360c483015203925af1801561034857610ae35750f35b8a80fd5b63028c4d0760e01b8952600489fd5b6301ca793160e61b8952600489fd5b90506020813d602011611e9e575b81611e83602093836142ac565b81010312611e9a57611e9490614330565b38611d88565b8980fd5b3d9150611e76565b6040513d8c823e3d90fd5b63971730a960e01b8a5260048afd5b90506020813d602011611ef2575b81611edb602093836142ac565b81010312611e4657611eec90614330565b38611d5c565b3d9150611ece565b6040513d8d823e3d90fd5b90506020813d602011611f30575b81611f20602093836142ac565b8101031261037f57516020611d29565b3d9150611f13565b8680fd5b503461025a57604036600319011261025a576004356001600160401b03811161025d57611f6d903690600401614132565b9190611f776141d1565b9260018060a01b0360015416604051631d6c8e3f60e21b8152602081600481855afa9081156108bf57859161211c575b50604051632474521560e21b81526004810191909152336024820152602081604481855afa9081156108bf5785916120e2575b50156120d357602060049160405192838092635c975abb60e01b82525afa90811561062d578491612099575b50610ec45760ff60055460a01c1615610672578293600014612060576002546001600160a01b031691823b1561205b576116f09284928360405180968195829463e7714a2160e01b84523391600485016144aa565b505050fd5b6002546001600160a01b031691823b1561205b576116f09284928360405180968195829463f384e23f60e01b84523391600485016144aa565b90506020813d6020116120cb575b816120b4602093836142ac565b81010312610621576120c590614330565b38612006565b3d91506120a7565b637bfa4b9f60e01b8452600484fd5b90506020813d602011612114575b816120fd602093836142ac565b810103126108fc5761210e90614330565b38611fda565b3d91506120f0565b90506020813d602011612147575b81612137602093836142ac565b8101031261037f57516020611fa7565b3d915061212a565b503461025a57602036600319011261025a57604051636b366cb560e01b81527f00000000000000000000000000000000000000000000000000000000000000006001600160a01b031690602081600481855afa90811561038c5783916123c3575b50604051632474521560e21b81526004810191909152336024820152602081604481855afa90811561038c578391612389575b501590816122b1575b5061026d57600154604051635c975abb60e01b815290602090829060049082906001600160a01b03165afa908115610348578291612277575b5061118e5760055460ff8160a01c16156104975781906001600160a01b0316803b1561117c5760405163157c4adf60e21b81526004803590820152336024820152908290829081838160448101610ad2565b90506020813d6020116122a9575b81612292602093836142ac565b8101031261025d576122a390614330565b38612225565b3d9150612285565b604051631d6c8e3f60e21b8152909150602081600481855afa90811561038c578391612355575b50604051632474521560e21b815260048101919091523360248201529060209082908180604481015b03915afa90811561034857829161231b575b5015386121ec565b90506020813d60201161234d575b81612336602093836142ac565b8101031261025d5761234790614330565b38612313565b3d9150612329565b90506020813d602011612381575b81612370602093836142ac565b8101031261037f57516123016122d8565b3d9150612363565b90506020813d6020116123bb575b816123a4602093836142ac565b81010312610b39576123b590614330565b386121e3565b3d9150612397565b90506020813d6020116123ee575b816123de602093836142ac565b8101031261037f575160206121b0565b3d91506123d1565b503461025a57604036600319011261025a576004356001600160401b03811161025d57612427903690600401614132565b61242f6140e8565b600154604051631d6c8e3f60e21b81526001600160a01b0390911690602081600481855afa908115612685578691612651575b50604051632474521560e21b815260048101919091523360248201529060209082908180604481015b03915afa9081156108bf578591612617575b50156120d35760ff60055460a01c1615610eb5576001600160a01b0316908115612608576040516020810190828583376124ea60208285810189838201520301601f1981018352826142ac565b51902060405160208101906e73747564656e74526567697374727960881b8252600f8152612519602f826142ac565b51902081036125705750600280546001600160a01b031916831790555b806040519384378201918383528033930390207f508230d9e989b49c651e1c7be29de727f16d9c1027f7660466911e442c3121fb8480a480f35b60405160208101906c31b7bab939b2a6b0b730b3b2b960991b8252600d815261259a602d826142ac565b51902081036125bb5750600380546001600160a01b03191683179055612536565b604051602081019070195b9c9bdb1b1b595b9d14995c5d595cdd607a1b8252601181526125e96031826142ac565b51902003610e3257600480546001600160a01b03191683179055612536565b6303777f6960e51b8452600484fd5b90506020813d602011612649575b81612632602093836142ac565b810103126108fc5761264390614330565b3861249d565b3d9150612625565b90506020813d60201161267d575b8161266c602093836142ac565b8101031261037f575161248b612462565b3d915061265f565b6040513d88823e3d90fd5b503461025a5761269f3661415f565b604051636b366cb560e01b81529597969295929491927f00000000000000000000000000000000000000000000000000000000000000006001600160a01b031690602081600481855afa908115611bd757899161290a575b50604051632474521560e21b81526004810191909152336024820152602081604481855afa908115611bd75789916128d0575b501590816127f8575b50611af057600154604051635c975abb60e01b815290602090829060049082906001600160a01b03165afa908115611ae55788916127be575b50611a985760ff60055460a01c1615611a8957600354969788976001600160a01b031693843b15611a855788968793610ad2926040519a8b998a98899763bc187d9960e01b8952339660048a01614459565b90506020813d6020116127f0575b816127d9602093836142ac565b81010312611ad9576127ea90614330565b3861276c565b3d91506127cc565b604051631d6c8e3f60e21b8152909150602081600481855afa908115611bd757899161289c575b50604051632474521560e21b815260048101919091523360248201529060209082908180604481015b03915afa908115611ae5578891612862575b501538612733565b90506020813d602011612894575b8161287d602093836142ac565b81010312611ad95761288e90614330565b3861285a565b3d9150612870565b90506020813d6020116128c8575b816128b7602093836142ac565b8101031261037f575161284861281f565b3d91506128aa565b90506020813d602011612902575b816128eb602093836142ac565b81010312611a85576128fc90614330565b3861272a565b3d91506128de565b90506020813d602011612935575b81612925602093836142ac565b8101031261037f575160206126f7565b3d9150612918565b503461025a57602036600319011261025a57604051636b366cb560e01b81527f00000000000000000000000000000000000000000000000000000000000000006001600160a01b031690602081600481855afa90811561038c578391612bb3575b50604051632474521560e21b81526004810191909152336024820152602081604481855afa90811561038c578391612b79575b50159081612aa1575b5061026d57600154604051635c975abb60e01b815290602090829060049082906001600160a01b03165afa908115610348578291612a67575b5061118e5760ff60055460a01c161561117f5760045481906001600160a01b0316803b1561117c57604051632c33a39b60e01b81526004803590820152336024820152908290829081838160448101610ad2565b90506020813d602011612a99575b81612a82602093836142ac565b8101031261025d57612a9390614330565b38612a13565b3d9150612a75565b604051631d6c8e3f60e21b8152909150602081600481855afa90811561038c578391612b45575b50604051632474521560e21b815260048101919091523360248201529060209082908180604481015b03915afa908115610348578291612b0b575b5015386129da565b90506020813d602011612b3d575b81612b26602093836142ac565b8101031261025d57612b3790614330565b38612b03565b3d9150612b19565b90506020813d602011612b71575b81612b60602093836142ac565b8101031261037f5751612af1612ac8565b3d9150612b53565b90506020813d602011612bab575b81612b94602093836142ac565b81010312610b3957612ba590614330565b386129d1565b3d9150612b87565b90506020813d602011612bde575b81612bce602093836142ac565b8101031261037f5751602061299e565b3d9150612bc1565b503461025a578060031936011261025a57600554604051635c975abb60e01b81529160a09190911c60ff169080806020856004817f00000000000000000000000000000000000000000000000000000000000000006001600160a01b03165afa948515612d9d578195612d60575b506006549084612c83575b5060a094604051941515855215156020850152604084015260608301526080820152f35b6002546040516330c6189f60e01b8152969450909250602090869060049082906001600160a01b03165afa8015610348578290612d2d575b60048054604051631c930fa560e01b81529750919391602091889182906001600160a01b03165afa9081156102615790612cfa575b92945060a0612c5f565b506020853d602011612d25575b81612d14602093836142ac565b8101031261037f5760a09451612cf0565b3d9150612d07565b506020853d602011612d58575b81612d47602093836142ac565b8101031261037f5760049451612cbb565b3d9150612d3a565b9094506020813d602011612d95575b81612d7c602093836142ac565b810103126108fc57612d8e8491614330565b9490612c54565b3d9150612d6f565b50604051903d90823e3d90fd5b503461025a57608036600319011261025a57612dc46140d2565b612dcc6140e8565b6044356001600160a01b03811690819003610621576064356001600160a01b03811692908390036108fc57600154604051631d6c8e3f60e21b81526001600160a01b0390911690602081600481855afa908115612fe2578791612fae575b50604051632474521560e21b815260048101919091523360248201529060209082908180604481015b03915afa908115612685578691612f70575b5015612f61576005549360ff8560a01c16612f52576001600160a01b031680158015612f41575b8015612f39575b8015612f31575b612f22576001600160601b0360a01b600254161760025560018060a01b03166001600160601b0360a01b60035416176003556001600160601b0360a01b6004541617600455600160a01b916affffffffffffffffffffff60a81b161717600555337f6bc0723562497c91d6cc15ca8a46b9cef65f8d2575c8dc4f89eefa2d8e0eb87b8280a280f35b6303777f6960e51b8652600486fd5b508315612e9a565b508215612e93565b506001600160a01b03821615612e8c565b6308cc254760e01b8652600486fd5b637bfa4b9f60e01b8552600485fd5b90506020813d602011612fa6575b81612f8b602093836142ac565b81010312612fa257612f9c90614330565b38612e65565b8580fd5b3d9150612f7e565b90506020813d602011612fda575b81612fc9602093836142ac565b8101031261037f5751612e53612e2a565b3d9150612fbc565b6040513d89823e3d90fd5b503461025a578060031936011261025a576003546040516001600160a01b039091168152602090f35b503461025a57602036600319011261025a576130306140d2565b6005549060ff8260a01c1615610672576001600160a01b0316338114158061322b575b8061312b575b6107d85760405163090cae3160e31b81526004810191909152908290829060249082906001600160a01b03165afa91821561026157809181936130c1575b6130b383610211866040519384936040855260408501906140fe565b90838203602085015261409b565b915091503d8083833e6130d481836142ac565b81019160408284031261025a5781516001600160401b03811161025d57836130fd9184016143db565b916020810151916001600160401b03831161025a57506130b393610211926131259201614376565b92613097565b50604051631d6c8e3f60e21b81527f00000000000000000000000000000000000000000000000000000000000000006001600160a01b031690602081600481855afa9081156108bf5785916131f7575b50604051632474521560e21b815260048101919091523360248201529060209082908180604481015b03915afa90811561062d5784916131bd575b5015613059565b90506020813d6020116131ef575b816131d8602093836142ac565b81010312610621576131e990614330565b386131b6565b3d91506131cb565b90506020813d602011613223575b81613212602093836142ac565b8101031261037f57516131a461317b565b3d9150613205565b50604051636b366cb560e01b81527f00000000000000000000000000000000000000000000000000000000000000006001600160a01b031690602081600481855afa9081156108bf5785916132f7575b50604051632474521560e21b815260048101919091523360248201529060209082908180604481015b03915afa90811561062d5784916132bd575b5015613053565b90506020813d6020116132ef575b816132d8602093836142ac565b81010312610621576132e990614330565b386132b6565b3d91506132cb565b90506020813d602011613323575b81613312602093836142ac565b8101031261037f57516132a461327b565b3d9150613305565b503461025a578060031936011261025a57600154604051631d6c8e3f60e21b81526001600160a01b0390911690602081600481855afa90811561038c578391613449575b50604051632474521560e21b815260048101919091523360248201529060209082908180604481015b03915afa90811561034857829161340f575b50156134005760065460001981146133ec576001018060065533907f91a6488103e1a58022c791b02d87620b0769153c8e8909f74eb8e118385a4cde8380a380f35b634e487b7160e01b82526011600452602482fd5b637bfa4b9f60e01b8152600490fd5b90506020813d602011613441575b8161342a602093836142ac565b8101031261025d5761343b90614330565b386133aa565b3d915061341d565b90506020813d602011613475575b81613464602093836142ac565b8101031261037f575161339861336f565b3d9150613457565b503461025a57602036600319011261025a57600435906005549160ff8360a01c1615610497576003546040516301a5a06760e11b81526004810183905290602090829060249082906001600160a01b03165afa90811561038c578391613801575b5015610af857604051636b366cb560e01b81527f00000000000000000000000000000000000000000000000000000000000000006001600160a01b031690602081600481855afa90811561062d5784916137ce575b50604051632474521560e21b81526004810191909152336024820152602081604481855afa90811561062d578491613794575b501590816136bc575b50610b45576040516316e9f51f60e11b81526004810191909152918190839060249082906001600160a01b03165afa8015612d9d5781928291613603575b5060405191604083016040845284518091526020606085019501915b8181106135e45784806102118887838203602085015261409b565b82516001600160a01b03168652602095860195909201916001016135c9565b9250503d8082843e61361581846142ac565b820160408382031261025d5782516001600160401b038111610b395783019281601f85011215610b395783519361364b85614351565b9461365960405196876142ac565b80865260208087019160051b83010191848311612fa257602001905b8282106136a4575050506020810151906001600160401b0382116106215761369e929101614376565b386135ad565b602080916136b18461433d565b815201910190613675565b604051631d6c8e3f60e21b8152909150602081600481855afa90811561062d578491613760575b50604051632474521560e21b815260048101919091523360248201529060209082908180604481015b03915afa90811561038c578391613726575b50153861356f565b90506020813d602011613758575b81613741602093836142ac565b81010312610b395761375290614330565b3861371e565b3d9150613734565b90506020813d60201161378c575b8161377b602093836142ac565b8101031261037f575161370c6136e3565b3d915061376e565b90506020813d6020116137c6575b816137af602093836142ac565b81010312610621576137c090614330565b38613566565b3d91506137a2565b90506020813d6020116137f9575b816137e9602093836142ac565b8101031261037f57516020613533565b3d91506137dc565b90506020813d602011613833575b8161381c602093836142ac565b81010312610b395761382d90614330565b386134de565b3d915061380f565b503461025a578060031936011261025a5760049060ff60055460a01c16156138cb578154604051631c930fa560e01b81529260209184919082906001600160a01b03165afa9081156102615790613898575b602090604051908152f35b506020813d6020116138c3575b816138b2602093836142ac565b8101031261037f576020905161388d565b3d91506138a5565b63028c4d0760e01b8152fd5b503461025a57602036600319011261025a578060806040516138f881614291565b828152826020820152826040820152826060820152015260ff60055460a01c161561117f5760249060a0600180821b036004541660405193848092630655d61960e21b825260043560048301525afa918215612d9d578192613bd1575b5081516001600160a01b031633141580613ad1575b806139d1575b61026d576040805183516001600160a01b031681526020808501519082015290830151909160048210156139bd575060a09260809160408401526060810151606084015201516080820152f35b634e487b7160e01b81526021600452602490fd5b50604051631d6c8e3f60e21b81527f00000000000000000000000000000000000000000000000000000000000000006001600160a01b031690602081600481855afa90811561038c578391613a9d575b50604051632474521560e21b815260048101919091523360248201529060209082908180604481015b03915afa908115610348578291613a63575b5015613970565b90506020813d602011613a95575b81613a7e602093836142ac565b8101031261025d57613a8f90614330565b38613a5c565b3d9150613a71565b90506020813d602011613ac9575b81613ab8602093836142ac565b8101031261037f5751613a4a613a21565b3d9150613aab565b50604051636b366cb560e01b81527f00000000000000000000000000000000000000000000000000000000000000006001600160a01b031690602081600481855afa90811561038c578391613b9d575b50604051632474521560e21b815260048101919091523360248201529060209082908180604481015b03915afa908115610348578291613b63575b501561396a565b90506020813d602011613b95575b81613b7e602093836142ac565b8101031261025d57613b8f90614330565b38613b5c565b3d9150613b71565b90506020813d602011613bc9575b81613bb8602093836142ac565b8101031261037f5751613b4a613b21565b3d9150613bab565b90915060a0813d60a011613c46575b81613bed60a093836142ac565b8101031261025d5760405190613c0282614291565b613c0b8161433d565b825260208101516020830152604081015190600482101561062157608091604084015260608101516060840152015160808201529038613955565b3d9150613be0565b503461025a57602036600319011261025a5760015460405163f7be43fb60e01b81526001600160a01b0390911690602081600481855afa90811561038c578391613de1575b50604051632474521560e21b81526004810191909152336024820152602081604481855afa90811561038c578391613da7575b5015613d9857602060049160405192838092635c975abb60e01b82525afa908115610348578291613d5e575b5061118e5760ff60055460a01c161561117f576004546001600160a01b0316803b1561025d57604051634c0adda960e01b8152600480359082015233602482015290829081908390604490829084905af18015612d9d57613d505780f35b613d59916142ac565b388180f35b90506020813d602011613d90575b81613d79602093836142ac565b8101031261025d57613d8a90614330565b38613cf2565b3d9150613d6c565b63971730a960e01b8252600482fd5b90506020813d602011613dd9575b81613dc2602093836142ac565b81010312610b3957613dd390614330565b38613cc6565b3d9150613db5565b90506020813d602011613e0c575b81613dfc602093836142ac565b81010312610b3957516020613c93565b3d9150613def565b503461025a578060031936011261025a576001546040516001600160a01b039091168152602090f35b503461025a57602036600319011261025a578060a0604051613e5e81614260565b8281526060602082015260606040820152826060820152826080820152015260ff60055460a01c161561117f57600354604051630b91e28d60e01b8152600480359082015291908190839060249082906001600160a01b03165afa918215612d9d578192613f35575b826040518091602082528051602083015260a0613f0c613ef6602084015160c0604087015260e0860190614076565b6040840151858203601f19016060870152614076565b9161ffff606082015116608085015261ffff608082015116828501520151151560c08301520390f35b9091503d8083833e613f4781836142ac565b810190602081830312610b39578051906001600160401b03821161062157019060c082820312610b395760405192613f7e84614260565b8251845260208301516001600160401b03811161025d5782613fa19185016142cd565b60208501526040830151906001600160401b03821161025a575091613fcd60a092613ffa9483016142cd565b6040850152613fde60608201614321565b6060850152613fef60808201614321565b608085015201614330565b60a08201523880613ec7565b503461025a578060031936011261025a576005546040516001600160a01b039091168152602090f35b90503461025d578160031936011261025d5760209060ff60055460a01c1615158152f35b60005b8381106140665750506000910152565b8181015183820152602001614056565b9060209161408f81518092818552858086019101614053565b601f01601f1916010190565b906020808351928381520192019060005b8181106140b95750505090565b825160ff168452602093840193909201916001016140ac565b600435906001600160a01b038216820361037f57565b602435906001600160a01b038216820361037f57565b906020808351928381520192019060005b81811061411c5750505090565b825184526020938401939092019160010161410f565b9181601f8401121561037f578235916001600160401b03831161037f576020838186019501011161037f57565b9060a060031983011261037f57600435916024356001600160401b03811161037f578161418e91600401614132565b92909291604435906001600160401b03821161037f576141b091600401614132565b909160643560ff8116810361037f579060843561ffff8116810361037f5790565b60243590811515820361037f57565b6020815260c060a061424861423261421c614206875186602089015260e0880190614076565b6020880151878203601f19016040890152614076565b6040870151868203601f19016060880152614076565b6060860151858203601f19016080870152614076565b9361ffff608082015116828501520151151591015290565b60c081019081106001600160401b0382111761427b57604052565b634e487b7160e01b600052604160045260246000fd5b60a081019081106001600160401b0382111761427b57604052565b90601f801991011681019081106001600160401b0382111761427b57604052565b81601f8201121561037f5780516001600160401b03811161427b5760405192614300601f8301601f1916602001856142ac565b8184526020828401011161037f5761431e9160208085019101614053565b90565b519061ffff8216820361037f57565b5190811515820361037f57565b51906001600160a01b038216820361037f57565b6001600160401b03811161427b5760051b60200190565b519060ff8216820361037f57565b9080601f8301121561037f57815161438d81614351565b9261439b60405194856142ac565b81845260208085019260051b82010192831161037f57602001905b8282106143c35750505090565b602080916143d084614368565b8152019101906143b6565b9080601f8301121561037f5781516143f281614351565b9261440060405194856142ac565b81845260208085019260051b82010192831161037f57602001905b8282106144285750505090565b815181526020918201910161441b565b908060209392818452848401376000828201840152601f01601f1916010190565b96929360a09699989561448360ff9461ffff97614491958c5260c060208d015260c08c0191614438565b9189830360408b0152614438565b97166060860152166080840152600180831b0316910152565b916020916144c391959495604085526040850191614438565b6001600160a01b03909416910152565b604051906144e082614260565b600060a0836060815260606020820152606060408201526060808201528260808201520152565b60208183031261037f578051906001600160401b03821161037f570160c08183031261037f576040519161453a83614260565b81516001600160401b03811161037f57816145569184016142cd565b835260208201516001600160401b03811161037f57816145779184016142cd565b602084015260408201516001600160401b03811161037f578161459b9184016142cd565b60408401526060820151916001600160401b03831161037f57613fde60a0926145c59483016142cd565b60a08201529056fea264697066735822122005d3d4fc14114a17122b7b2b013dc66b826de18ea84301c1f4c24f03d83720c964736f6c634300081c0033",
  "linkReferences": {},
  "deployedLinkReferences": {}
}