{
  "_format": "hh-sol-artifact-1",
  "contractName": "CRID",
  "sourceName": "contracts/core/CRID.sol",
  "abi": [
    {
      "inputs": [
        {
          "internalType": "address",
          "name": "_accessControl",
          "type": "address"
        }
      ],
      "stateMutability": "nonpayable",
      "type": "constructor"
    },
    {
      "inputs": [],
      "name": "InvalidAccessControlAddress",
      "type": "error"
    },
    {
      "inputs": [],
      "name": "InvalidAddress",
      "type": "error"
    },
    {
      "inputs": [],
      "name": "InvalidContract",
      "type": "error"
    },
    {
      "inputs": [],
      "name": "InvalidInput",
      "type": "error"
    },
    {
      "inputs": [],
      "name": "InvalidUser",
      "type": "error"
    },
    {
      "inputs": [],
      "name": "NotAdmin",
      "type": "error"
    },
    {
      "inputs": [],
      "name": "NotCoordinator",
      "type": "error"
    },
    {
      "inputs": [],
      "name": "NotStudent",
      "type": "error"
    },
    {
      "inputs": [],
      "name": "ReentrantCall",
      "type": "error"
    },
    {
      "inputs": [],
      "name": "SystemAlreadyInitialized",
      "type": "error"
    },
    {
      "inputs": [],
      "name": "SystemNotInitialized",
      "type": "error"
    },
    {
      "inputs": [],
      "name": "SystemPaused",
      "type": "error"
    },
    {
      "inputs": [],
      "name": "UnauthorizedAccess",
      "type": "error"
    },
    {
      "anonymous": false,
      "inputs": [
        {
          "indexed": true,
          "internalType": "string",
          "name": "contractName",
          "type": "string"
        },
        {
          "indexed": true,
          "internalType": "address",
          "name": "newAddress",
          "type": "address"
        },
        {
          "indexed": true,
          "internalType": "address",
          "name": "agent",
          "type": "address"
        }
      ],
      "name": "ContractUpdated",
      "type": "event"
    },
    {
      "anonymous": false,
      "inputs": [
        {
          "indexed": true,
          "internalType": "address",
          "name": "agent",
          "type": "address"
        }
      ],
      "name": "SystemInitialized",
      "type": "event"
    },
    {
      "anonymous": false,
      "inputs": [
        {
          "indexed": true,
          "internalType": "uint256",
          "name": "newVersion",
          "type": "uint256"
        },
        {
          "indexed": true,
          "internalType": "address",
          "name": "agent",
          "type": "address"
        }
      ],
      "name": "SystemUpgraded",
      "type": "event"
    },
    {
      "inputs": [],
      "name": "ACCESS_CONTROL",
      "outputs": [
        {
          "internalType": "contract ICRIDAccessControl",
          "name": "",
          "type": "address"
        }
      ],
      "stateMutability": "view",
      "type": "function"
    },
    {
      "inputs": [],
      "name": "accessControl",
      "outputs": [
        {
          "internalType": "contract CRIDAccessControl",
          "name": "",
          "type": "address"
        }
      ],
      "stateMutability": "view",
      "type": "function"
    },
    {
      "inputs": [
        {
          "internalType": "address",
          "name": "coordinator",
          "type": "address"
        }
      ],
      "name": "addCoordinator",
      "outputs": [],
      "stateMutability": "nonpayable",
      "type": "function"
    },
    {
      "inputs": [
        {
          "internalType": "uint256",
          "name": "id",
          "type": "uint256"
        },
        {
          "internalType": "string",
          "name": "name",
          "type": "string"
        },
        {
          "internalType": "string",
          "name": "description",
          "type": "string"
        },
        {
          "internalType": "uint8",
          "name": "credits",
          "type": "uint8"
        },
        {
          "internalType": "uint16",
          "name": "maxStudents",
          "type": "uint16"
        }
      ],
      "name": "addCourse",
      "outputs": [],
      "stateMutability": "nonpayable",
      "type": "function"
    },
    {
      "inputs": [
        {
          "internalType": "address",
          "name": "student",
          "type": "address"
        },
        {
          "internalType": "uint256",
          "name": "courseId",
          "type": "uint256"
        },
        {
          "internalType": "uint8",
          "name": "grade",
          "type": "uint8"
        }
      ],
      "name": "addGrade",
      "outputs": [],
      "stateMutability": "nonpayable",
      "type": "function"
    },
    {
      "inputs": [
        {
          "internalType": "address",
          "name": "student",
          "type": "address"
        }
      ],
      "name": "addStudent",
      "outputs": [],
      "stateMutability": "nonpayable",
      "type": "function"
    },
    {
      "inputs": [
        {
          "internalType": "uint256",
          "name": "requestId",
          "type": "uint256"
        }
      ],
      "name": "approveEnrollmentRequest",
      "outputs": [],
      "stateMutability": "nonpayable",
      "type": "function"
    },
    {
      "inputs": [
        {
          "internalType": "uint256",
          "name": "requestId",
          "type": "uint256"
        }
      ],
      "name": "cancelEnrollmentRequest",
      "outputs": [],
      "stateMutability": "nonpayable",
      "type": "function"
    },
    {
      "inputs": [],
      "name": "courseManager",
      "outputs": [
        {
          "internalType": "contract ICourseManager",
          "name": "",
          "type": "address"
        }
      ],
      "stateMutability": "view",
      "type": "function"
    },
    {
      "inputs": [],
      "name": "enrollmentRequest",
      "outputs": [
        {
          "internalType": "contract IEnrollmentRequest",
          "name": "",
          "type": "address"
        }
      ],
      "stateMutability": "view",
      "type": "function"
    },
    {
      "inputs": [
        {
          "internalType": "uint256",
          "name": "courseId",
          "type": "uint256"
        }
      ],
      "name": "getCourse",
      "outputs": [
        {
          "components": [
            {
              "internalType": "uint256",
              "name": "id",
              "type": "uint256"
            },
            {
              "internalType": "string",
              "name": "name",
              "type": "string"
            },
            {
              "internalType": "string",
              "name": "description",
              "type": "string"
            },
            {
              "internalType": "uint16",
              "name": "credits",
              "type": "uint16"
            },
            {
              "internalType": "uint16",
              "name": "maxStudents",
              "type": "uint16"
            },
            {
              "internalType": "bool",
              "name": "isActive",
              "type": "bool"
            }
          ],
          "internalType": "struct ICourseManager.Course",
          "name": "course",
          "type": "tuple"
        }
      ],
      "stateMutability": "view",
      "type": "function"
    },
    {
      "inputs": [
        {
          "internalType": "uint256",
          "name": "requestId",
          "type": "uint256"
        }
      ],
      "name": "getEnrollmentRequest",
      "outputs": [
        {
          "components": [
            {
              "internalType": "address",
              "name": "student",
              "type": "address"
            },
            {
              "internalType": "uint256",
              "name": "requestDate",
              "type": "uint256"
            },
            {
              "internalType": "enum IEnrollmentRequest.RequestStatus",
              "name": "status",
              "type": "uint8"
            },
            {
              "internalType": "uint256",
              "name": "id",
              "type": "uint256"
            },
            {
              "internalType": "uint256",
              "name": "courseId",
              "type": "uint256"
            }
          ],
          "internalType": "struct IEnrollmentRequest.Request",
          "name": "request",
          "type": "tuple"
        }
      ],
      "stateMutability": "view",
      "type": "function"
    },
    {
      "inputs": [
        {
          "internalType": "address",
          "name": "studentAddress",
          "type": "address"
        }
      ],
      "name": "getEnrollmentRequestsByStudent",
      "outputs": [
        {
          "internalType": "uint256[]",
          "name": "requestIds",
          "type": "uint256[]"
        }
      ],
      "stateMutability": "view",
      "type": "function"
    },
    {
      "inputs": [],
      "name": "getEnrollmentRequestsCount",
      "outputs": [
        {
          "internalType": "uint256",
          "name": "count",
          "type": "uint256"
        }
      ],
      "stateMutability": "view",
      "type": "function"
    },
    {
      "inputs": [
        {
          "internalType": "address",
          "name": "student",
          "type": "address"
        },
        {
          "internalType": "uint256",
          "name": "courseId",
          "type": "uint256"
        }
      ],
      "name": "getGrade",
      "outputs": [
        {
          "internalType": "uint8",
          "name": "grade",
          "type": "uint8"
        }
      ],
      "stateMutability": "view",
      "type": "function"
    },
    {
      "inputs": [
        {
          "internalType": "uint256",
          "name": "courseId",
          "type": "uint256"
        }
      ],
      "name": "getGradesByCourse",
      "outputs": [
        {
          "internalType": "address[]",
          "name": "studentIds",
          "type": "address[]"
        },
        {
          "internalType": "uint8[]",
          "name": "grades",
          "type": "uint8[]"
        }
      ],
      "stateMutability": "view",
      "type": "function"
    },
    {
      "inputs": [
        {
          "internalType": "address",
          "name": "student",
          "type": "address"
        }
      ],
      "name": "getGradesByStudent",
      "outputs": [
        {
          "internalType": "uint256[]",
          "name": "courseIds",
          "type": "uint256[]"
        },
        {
          "internalType": "uint8[]",
          "name": "grades",
          "type": "uint8[]"
        }
      ],
      "stateMutability": "view",
      "type": "function"
    },
    {
      "inputs": [
        {
          "internalType": "address",
          "name": "studentAddress",
          "type": "address"
        }
      ],
      "name": "getStudentByAddress",
      "outputs": [
        {
          "components": [
            {
              "internalType": "string",
              "name": "id",
              "type": "string"
            },
            {
              "internalType": "string",
              "name": "fullName",
              "type": "string"
            },
            {
              "internalType": "string",
              "name": "email",
              "type": "string"
            },
            {
              "internalType": "string",
              "name": "program",
              "type": "string"
            },
            {
              "internalType": "uint16",
              "name": "enrollmentYear",
              "type": "uint16"
            },
            {
              "internalType": "bool",
              "name": "isActive",
              "type": "bool"
            }
          ],
          "internalType": "struct IStudentRegistry.Student",
          "name": "student",
          "type": "tuple"
        }
      ],
      "stateMutability": "view",
      "type": "function"
    },
    {
      "inputs": [
        {
          "internalType": "string",
          "name": "studentId",
          "type": "string"
        }
      ],
      "name": "getStudentById",
      "outputs": [
        {
          "components": [
            {
              "internalType": "string",
              "name": "id",
              "type": "string"
            },
            {
              "internalType": "string",
              "name": "fullName",
              "type": "string"
            },
            {
              "internalType": "string",
              "name": "email",
              "type": "string"
            },
            {
              "internalType": "string",
              "name": "program",
              "type": "string"
            },
            {
              "internalType": "uint16",
              "name": "enrollmentYear",
              "type": "uint16"
            },
            {
              "internalType": "bool",
              "name": "isActive",
              "type": "bool"
            }
          ],
          "internalType": "struct IStudentRegistry.Student",
          "name": "student",
          "type": "tuple"
        }
      ],
      "stateMutability": "view",
      "type": "function"
    },
    {
      "inputs": [],
      "name": "getSystemStatus",
      "outputs": [
        {
          "internalType": "bool",
          "name": "initialized",
          "type": "bool"
        },
        {
          "internalType": "bool",
          "name": "paused",
          "type": "bool"
        },
        {
          "internalType": "uint256",
          "name": "version",
          "type": "uint256"
        },
        {
          "internalType": "uint256",
          "name": "totalStudents",
          "type": "uint256"
        },
        {
          "internalType": "uint256",
          "name": "totalRequests",
          "type": "uint256"
        }
      ],
      "stateMutability": "view",
      "type": "function"
    },
    {
      "inputs": [],
      "name": "gradeManager",
      "outputs": [
        {
          "internalType": "contract IGradeManager",
          "name": "",
          "type": "address"
        }
      ],
      "stateMutability": "view",
      "type": "function"
    },
    {
      "inputs": [
        {
          "internalType": "bytes32",
          "name": "role",
          "type": "bytes32"
        },
        {
          "internalType": "address",
          "name": "account",
          "type": "address"
        }
      ],
      "name": "hasRole",
      "outputs": [
        {
          "internalType": "bool",
          "name": "doesHasRole",
          "type": "bool"
        }
      ],
      "stateMutability": "view",
      "type": "function"
    },
    {
      "inputs": [
        {
          "internalType": "address",
          "name": "_studentRegistry",
          "type": "address"
        },
        {
          "internalType": "address",
          "name": "_courseManager",
          "type": "address"
        },
        {
          "internalType": "address",
          "name": "_enrollmentRequest",
          "type": "address"
        },
        {
          "internalType": "address",
          "name": "_gradeManager",
          "type": "address"
        }
      ],
      "name": "initializeSystem",
      "outputs": [],
      "stateMutability": "nonpayable",
      "type": "function"
    },
    {
      "inputs": [],
      "name": "isSystemPaused",
      "outputs": [
        {
          "internalType": "bool",
          "name": "paused",
          "type": "bool"
        }
      ],
      "stateMutability": "view",
      "type": "function"
    },
    {
      "inputs": [],
      "name": "listAllStudents",
      "outputs": [
        {
          "components": [
            {
              "internalType": "string",
              "name": "id",
              "type": "string"
            },
            {
              "internalType": "string",
              "name": "fullName",
              "type": "string"
            },
            {
              "internalType": "string",
              "name": "email",
              "type": "string"
            },
            {
              "internalType": "string",
              "name": "program",
              "type": "string"
            },
            {
              "internalType": "uint16",
              "name": "enrollmentYear",
              "type": "uint16"
            },
            {
              "internalType": "bool",
              "name": "isActive",
              "type": "bool"
            }
          ],
          "internalType": "struct IStudentRegistry.Student[]",
          "name": "students",
          "type": "tuple[]"
        }
      ],
      "stateMutability": "view",
      "type": "function"
    },
    {
      "inputs": [],
      "name": "pauseSystem",
      "outputs": [],
      "stateMutability": "nonpayable",
      "type": "function"
    },
    {
      "inputs": [
        {
          "internalType": "string",
          "name": "id",
          "type": "string"
        },
        {
          "internalType": "string",
          "name": "fullName",
          "type": "string"
        },
        {
          "internalType": "string",
          "name": "email",
          "type": "string"
        },
        {
          "internalType": "string",
          "name": "program",
          "type": "string"
        },
        {
          "internalType": "uint16",
          "name": "enrollmentYear",
          "type": "uint16"
        }
      ],
      "name": "registerStudent",
      "outputs": [],
      "stateMutability": "nonpayable",
      "type": "function"
    },
    {
      "inputs": [
        {
          "internalType": "uint256",
          "name": "requestId",
          "type": "uint256"
        }
      ],
      "name": "rejectEnrollmentRequest",
      "outputs": [],
      "stateMutability": "nonpayable",
      "type": "function"
    },
    {
      "inputs": [
        {
          "internalType": "address",
          "name": "coordinator",
          "type": "address"
        }
      ],
      "name": "removeCoordinator",
      "outputs": [],
      "stateMutability": "nonpayable",
      "type": "function"
    },
    {
      "inputs": [
        {
          "internalType": "uint256",
          "name": "gradeId",
          "type": "uint256"
        }
      ],
      "name": "removeGrade",
      "outputs": [],
      "stateMutability": "nonpayable",
      "type": "function"
    },
    {
      "inputs": [
        {
          "internalType": "address",
          "name": "student",
          "type": "address"
        }
      ],
      "name": "removeStudent",
      "outputs": [],
      "stateMutability": "nonpayable",
      "type": "function"
    },
    {
      "inputs": [
        {
          "internalType": "uint256",
          "name": "courseId",
          "type": "uint256"
        }
      ],
      "name": "requestEnrollment",
      "outputs": [],
      "stateMutability": "nonpayable",
      "type": "function"
    },
    {
      "inputs": [
        {
          "internalType": "uint256",
          "name": "courseId",
          "type": "uint256"
        },
        {
          "internalType": "bool",
          "name": "isActive",
          "type": "bool"
        }
      ],
      "name": "setCourseStatus",
      "outputs": [],
      "stateMutability": "nonpayable",
      "type": "function"
    },
    {
      "inputs": [
        {
          "internalType": "string",
          "name": "studentId",
          "type": "string"
        },
        {
          "internalType": "bool",
          "name": "isActive",
          "type": "bool"
        }
      ],
      "name": "setStudentStatus",
      "outputs": [],
      "stateMutability": "nonpayable",
      "type": "function"
    },
    {
      "inputs": [],
      "name": "studentRegistry",
      "outputs": [
        {
          "internalType": "contract IStudentRegistry",
          "name": "",
          "type": "address"
        }
      ],
      "stateMutability": "view",
      "type": "function"
    },
    {
      "inputs": [],
      "name": "systemInitialized",
      "outputs": [
        {
          "internalType": "bool",
          "name": "",
          "type": "bool"
        }
      ],
      "stateMutability": "view",
      "type": "function"
    },
    {
      "inputs": [],
      "name": "systemVersion",
      "outputs": [
        {
          "internalType": "uint256",
          "name": "",
          "type": "uint256"
        }
      ],
      "stateMutability": "view",
      "type": "function"
    },
    {
      "inputs": [],
      "name": "unpauseSystem",
      "outputs": [],
      "stateMutability": "nonpayable",
      "type": "function"
    },
    {
      "inputs": [
        {
          "internalType": "string",
          "name": "contractName",
          "type": "string"
        },
        {
          "internalType": "address",
          "name": "newAddress",
          "type": "address"
        }
      ],
      "name": "updateContract",
      "outputs": [],
      "stateMutability": "nonpayable",
      "type": "function"
    },
    {
      "inputs": [
        {
          "internalType": "uint256",
          "name": "id",
          "type": "uint256"
        },
        {
          "internalType": "string",
          "name": "name",
          "type": "string"
        },
        {
          "internalType": "string",
          "name": "description",
          "type": "string"
        },
        {
          "internalType": "uint8",
          "name": "credits",
          "type": "uint8"
        },
        {
          "internalType": "uint16",
          "name": "maxStudents",
          "type": "uint16"
        }
      ],
      "name": "updateCourse",
      "outputs": [],
      "stateMutability": "nonpayable",
      "type": "function"
    },
    {
      "inputs": [],
      "name": "upgradeSystem",
      "outputs": [],
      "stateMutability": "nonpayable",
      "type": "function"
    }
  ],
  "bytecode": "0x60a03461015d57601f61571b38819003918201601f19168301916001600160401b038311848410176101625780849260209460405283398101031261015d57516001600160a01b0381169081900361015d57801561014c57600180546001600160a01b0319168217815560008190556080919091526006556040516155a2908161017982396080518181816102b501528181610543015281816106430152818161094801528181610c7a01528181611158015281816112980152818161167a015281816119c301528181611cfc01528181611dfc01528181611f1c0152818161225f015281816122e8015281816123910152818161273001528181612e0501528181612f3d01528181612fa2015281816134e90152818161379001528181613a4e01528181613c72015281816140d0015281816141d001528181614479015281816149670152614a670152f35b6340c4525b60e11b60005260046000fd5b600080fd5b634e487b7160e01b600052604160045260246000fdfe608080604052600436101561001357600080fd5b600090813560e01c9081630206850b14614fb55750806302e4791214614f8c5780630b91e28d14614dc357806313007d5514614d9a57806313ba27ce14614bd4578063195758641461485d5780631c930fa5146147c15780632dd3ea3e146144035780633b996867146142c05780634865718814613fab5780634b4f710a14613f825780634b5678d114613d435780634c76124014613bdc57806350c1d19d14613a18578063581f82231461376f57806362a63e7e146134c2578063697a60b3146132285780636cc6cd0014612f815780637691c4ac14612f0857806378c4798c14612d3357806379d5ae6d14612b2057806384f609ca146128335780638cb5a0c01461265e5780638f6952c91461236a57806391d148541461228e5780639269db361461224957806392c16fb51461222057806398a04d4c146121f75780639c872d2e14611eec5780639f3da5cc14611c4b578063a826b9e3146119a2578063ae9af89d1461165a578063b49595c91461125b578063bd06ea1914611086578063be15a42114610dc3578063d263690214610da5578063dc1d4fb714610bc1578063ed7ad826146108ff578063f6bc8efe14610733578063f816b2461461043a5763fbd6d77e146101e457600080fd5b34610322576020366003190112610322576101fd615058565b600154604051631d6c8e3f60e21b81526001600160a01b0390911690602081600481855afa9081156103f7578491610402575b50604051632474521560e21b81526004810191909152336024820152602081604481855afa9081156103f75784916103b9575b50156103aa57602060049160405192838092635c975abb60e01b82525afa90811561039f578391610361575b506103525760ff60055460a01c1615610343576001600160a01b031680156103345781907f00000000000000000000000000000000000000000000000000000000000000006001600160a01b031690813b15610330578291602483926040519485938492637deb6bbf60e11b845260048401525af18015610325576103115750f35b8161031b91615221565b6103225780f35b80fd5b6040513d84823e3d90fd5b5050fd5b63b4fa3fb360e01b8252600482fd5b63028c4d0760e01b8252600482fd5b6301ca793160e61b8252600482fd5b90506020813d602011610397575b8161037c60209383615221565b810103126103935761038d906152a5565b3861028f565b8280fd5b3d915061036f565b6040513d85823e3d90fd5b637bfa4b9f60e01b8352600483fd5b90506020813d6020116103ef575b816103d460209383615221565b810103126103eb576103e5906152a5565b38610263565b8380fd5b3d91506103c7565b6040513d86823e3d90fd5b90506020813d602011610432575b8161041d60209383615221565b8101031261042d57516020610230565b600080fd5b3d9150610410565b503461032257602036600319011261032257610454615058565b60ff60055460a01c1615610343576001600160a01b0316903382141580610633575b80610533575b610524578060018060a01b036004541692602460405180958193637c0b592360e11b835260048301525afa9081156105185780916104cf575b604051602080825281906104cb90820185615084565b0390f35b90503d8082843e6104e08184615221565b820191602081840312610514578051916001600160401b03831161032257509161050e916104cb9301615350565b386104b5565b5080fd5b604051903d90823e3d90fd5b631a27eac360e11b8152600490fd5b50604051631d6c8e3f60e21b81527f00000000000000000000000000000000000000000000000000000000000000006001600160a01b031690602081600481855afa90811561039f5783916105ff575b50604051632474521560e21b815260048101919091523360248201529060209082908180604481015b03915afa9081156103255782916105c5575b501561047c565b90506020813d6020116105f7575b816105e060209383615221565b81010312610514576105f1906152a5565b386105be565b3d91506105d3565b90506020813d60201161062b575b8161061a60209383615221565b8101031261042d57516105ac610583565b3d915061060d565b50604051636b366cb560e01b81527f00000000000000000000000000000000000000000000000000000000000000006001600160a01b031690602081600481855afa90811561039f5783916106ff575b50604051632474521560e21b815260048101919091523360248201529060209082908180604481015b03915afa9081156103255782916106c5575b5015610476565b90506020813d6020116106f7575b816106e060209383615221565b81010312610514576106f1906152a5565b386106be565b3d91506106d3565b90506020813d60201161072b575b8161071a60209383615221565b8101031261042d57516106ac610683565b3d915061070d565b50346103225760403660031901126103225761074d615058565b906024356005549260ff8460a01c16156108f05760025460405163c3c5a54760e01b81526001600160a01b039283166004820181905292909160209183916024918391165afa9081156103f75784916108b6575b501561086d576003546040516301a5a06760e11b81526004810184905290602090829060249082906001600160a01b03165afa9081156103f757849161087c575b501561086d579060446020926040519586938492637b5e477f60e11b84526004840152602483015260018060a01b03165afa908115610518578091610830575b60208260ff60405191168152f35b90506020823d602011610865575b8161084b60209383615221565b81010312610322575061085f6020916152dd565b38610822565b3d915061083e565b63b4fa3fb360e01b8352600483fd5b90506020813d6020116108ae575b8161089760209383615221565b810103126103eb576108a8906152a5565b386107e2565b3d915061088a565b90506020813d6020116108e8575b816108d160209383615221565b810103126103eb576108e2906152a5565b386107a1565b3d91506108c4565b63028c4d0760e01b8352600483fd5b5034610322576020366003190112610322576004356001600160401b038111610514576109309036906004016150b8565b610938615448565b50604051636b366cb560e01b81527f00000000000000000000000000000000000000000000000000000000000000006001600160a01b031690602081600481855afa908115610b45578591610b8e575b50604051632474521560e21b81526004810191909152336024820152602081604481855afa908115610b45578591610b50575b50159081610a6d575b50610a5e5760ff60055460a01c16156108f0576002546040516376bd6c1360e11b81526020600482015292849284926001600160a01b03169183918291610a0f9160248401916153ad565b03915afa90811561032557826104cb9392610a3b575b5050604051918291602083526020830190615166565b610a5792503d8091833e610a4f8183615221565b810190615547565b3880610a25565b631a27eac360e11b8352600483fd5b604051631d6c8e3f60e21b8152909150602081600481855afa908115610b45578591610b11575b50604051632474521560e21b815260048101919091523360248201529060209082908180604481015b03915afa9081156103f7578491610ad7575b5015386109c4565b90506020813d602011610b09575b81610af260209383615221565b810103126103eb57610b03906152a5565b38610acf565b3d9150610ae5565b90506020813d602011610b3d575b81610b2c60209383615221565b8101031261042d5751610abd610a94565b3d9150610b1f565b6040513d87823e3d90fd5b90506020813d602011610b86575b81610b6b60209383615221565b81010312610b8257610b7c906152a5565b386109bb565b8480fd5b3d9150610b5e565b90506020813d602011610bb9575b81610ba960209383615221565b8101031261042d57516020610988565b3d9150610b9c565b5034610322578060031936011261032257600154604051631d6c8e3f60e21b81526001600160a01b0390911690602081600481855afa90811561039f578391610d72575b50604051632474521560e21b81526004810191909152336024820152602081604481855afa90811561039f578391610d38575b5015610d2957602060049160405192838092635c975abb60e01b82525afa908115610325578291610cef575b50610ce05760ff60055460a01c1615610cd157807f00000000000000000000000000000000000000000000000000000000000000006001600160a01b0316803b15610cce57818091600460405180948193638456cb5960e01b83525af18015610325576103115750f35b50fd5b63028c4d0760e01b8152600490fd5b6301ca793160e61b8152600490fd5b90506020813d602011610d21575b81610d0a60209383615221565b8101031261051457610d1b906152a5565b38610c64565b3d9150610cfd565b637bfa4b9f60e01b8252600482fd5b90506020813d602011610d6a575b81610d5360209383615221565b8101031261039357610d64906152a5565b38610c38565b3d9150610d46565b90506020813d602011610d9d575b81610d8d60209383615221565b8101031261042d57516020610c05565b3d9150610d80565b50346103225780600319360112610322576020600654604051908152f35b50346103225760203660031901126103225760015460405163f7be43fb60e01b815260048035926001600160a01b03169190602090829081855afa9081156103f7578491611053575b50604051632474521560e21b81526004810191909152336024820152602081604481855afa9081156103f7578491611019575b501561100a57602060049160405192838092635c975abb60e01b82525afa90811561039f578391610fd0575b506103525760ff60055460a01c16156103435760025460405163095f7b8960e01b815233600482015290602090829060249082906001600160a01b03165afa90811561039f578391610f96575b5015610f87576003546040516301a5a06760e11b81526004810183905290602090829060249082906001600160a01b03165afa90811561039f578391610f4d575b5015610334576004548291906001600160a01b0316803b1561033057604051635855570360e11b8152600481019290925233602483015282908290818381604481015b03925af18015610325576103115750f35b90506020813d602011610f7f575b81610f6860209383615221565b8101031261039357610f79906152a5565b38610ef9565b3d9150610f5b565b631a27eac360e11b8252600482fd5b90506020813d602011610fc8575b81610fb160209383615221565b8101031261039357610fc2906152a5565b38610eb8565b3d9150610fa4565b90506020813d602011611002575b81610feb60209383615221565b8101031261039357610ffc906152a5565b38610e6b565b3d9150610fde565b63971730a960e01b8352600483fd5b90506020813d60201161104b575b8161103460209383615221565b810103126103eb57611045906152a5565b38610e3f565b3d9150611027565b90506020813d60201161107e575b8161106e60209383615221565b8101031261042d57516020610e0c565b3d9150611061565b5034610322576020366003190112610322576110a0615058565b600154604051631d6c8e3f60e21b81526001600160a01b0390911690602081600481855afa9081156103f7578491611228575b50604051632474521560e21b81526004810191909152336024820152602081604481855afa9081156103f75784916111ee575b50156103aa57602060049160405192838092635c975abb60e01b82525afa90811561039f5783916111b4575b506103525760ff60055460a01c1615610343576001600160a01b031680156103345781907f00000000000000000000000000000000000000000000000000000000000000006001600160a01b031690813b1561033057829160248392604051948593849263bd06ea1960e01b845260048401525af18015610325576103115750f35b90506020813d6020116111e6575b816111cf60209383615221565b81010312610393576111e0906152a5565b38611132565b3d91506111c2565b90506020813d602011611220575b8161120960209383615221565b810103126103eb5761121a906152a5565b38611106565b3d91506111fc565b90506020813d602011611253575b8161124360209383615221565b8101031261042d575160206110d3565b3d9150611236565b503461032257606036600319011261032257611275615058565b90602435916044359060ff821680920361039357604051636b366cb560e01b81527f00000000000000000000000000000000000000000000000000000000000000006001600160a01b031690602081600481855afa908115610b45578591611627575b50604051632474521560e21b81526004810191909152336024820152602081604481855afa908115610b455785916115ed575b50159081611515575b50610a5e57600154604051635c975abb60e01b815290602090829060049082906001600160a01b03165afa9081156103f75784916114db575b506114cc576005549360ff8560a01c16156114bd5760025460405163c3c5a54760e01b81526001600160a01b039384166004820181905293909160209183916024918391165afa908115610b45578591611483575b501561143a576003546040516301a5a06760e11b81526004810183905290602090829060249082906001600160a01b03165afa908115610b45578591611449575b501561143a5792938493906001600160a01b0316803b15610b82578492836084926040519687958694632a4a73fb60e01b86526004860152602485015260448401523360648401525af18015610325576103115750f35b63b4fa3fb360e01b8452600484fd5b90506020813d60201161147b575b8161146460209383615221565b81010312610b8257611475906152a5565b386113e3565b3d9150611457565b90506020813d6020116114b5575b8161149e60209383615221565b81010312610b82576114af906152a5565b386113a2565b3d9150611491565b63028c4d0760e01b8452600484fd5b6301ca793160e61b8352600483fd5b90506020813d60201161150d575b816114f660209383615221565b810103126103eb57611507906152a5565b3861134d565b3d91506114e9565b604051631d6c8e3f60e21b8152909150602081600481855afa908115610b455785916115b9575b50604051632474521560e21b815260048101919091523360248201529060209082908180604481015b03915afa9081156103f757849161157f575b501538611314565b90506020813d6020116115b1575b8161159a60209383615221565b810103126103eb576115ab906152a5565b38611577565b3d915061158d565b90506020813d6020116115e5575b816115d460209383615221565b8101031261042d575161156561153c565b3d91506115c7565b90506020813d60201161161f575b8161160860209383615221565b81010312610b8257611619906152a5565b3861130b565b3d91506115fb565b90506020813d602011611652575b8161164260209383615221565b8101031261042d575160206112d8565b3d9150611635565b5034610322578060031936011261032257604051636b366cb560e01b81527f00000000000000000000000000000000000000000000000000000000000000006001600160a01b031690602081600481855afa90811561039f57839161196f575b50604051632474521560e21b81526004810191909152336024820152602081604481855afa90811561039f578391611935575b5015908161185d575b506105245760ff60055460a01c1615610cd15760025460405163ae9af89d60e01b8152908290829060049082906001600160a01b03165afa9081156103255782916117a3575b50906040519182916020830160208452825180915260408401602060408360051b870101940192905b82821061177457505050500390f35b919360019193955060206117938192603f198a82030186528851615166565b9601920192018594939192611765565b90503d8083833e6117b48183615221565b810190602081830312610393578051906001600160401b0382116103eb57019080601f83011215610393578151916117eb836152c6565b926117f96040519485615221565b80845260208085019160051b830101918383116118595760208101915b8383106118285750505050503861173c565b82516001600160401b0381116118555760209161184a8784809487010161547c565b815201920191611816565b8780fd5b8580fd5b604051631d6c8e3f60e21b8152909150602081600481855afa90811561039f578391611901575b50604051632474521560e21b815260048101919091523360248201529060209082908180604481015b03915afa9081156103255782916118c7575b5015386116f6565b90506020813d6020116118f9575b816118e260209383615221565b81010312610514576118f3906152a5565b386118bf565b3d91506118d5565b90506020813d60201161192d575b8161191c60209383615221565b8101031261042d57516118ad611884565b3d915061190f565b90506020813d602011611967575b8161195060209383615221565b8101031261039357611961906152a5565b386116ed565b3d9150611943565b90506020813d60201161199a575b8161198a60209383615221565b8101031261042d575160206116ba565b3d915061197d565b503461032257602036600319011261032257604051636b366cb560e01b81527f00000000000000000000000000000000000000000000000000000000000000006001600160a01b031690602081600481855afa90811561039f578391611c18575b50604051632474521560e21b81526004810191909152336024820152602081604481855afa90811561039f578391611bde575b50159081611b06575b5061052457600154604051635c975abb60e01b815290602090829060049082906001600160a01b03165afa908115610325578291611acc575b50610ce05760ff60055460a01c1615610cd15760045481906001600160a01b0316803b15610cce5760405163c4bf6ecb60e01b81526004803590820152336024820152908290829081838160448101610f3c565b90506020813d602011611afe575b81611ae760209383615221565b8101031261051457611af8906152a5565b38611a78565b3d9150611ada565b604051631d6c8e3f60e21b8152909150602081600481855afa90811561039f578391611baa575b50604051632474521560e21b815260048101919091523360248201529060209082908180604481015b03915afa908115610325578291611b70575b501538611a3f565b90506020813d602011611ba2575b81611b8b60209383615221565b8101031261051457611b9c906152a5565b38611b68565b3d9150611b7e565b90506020813d602011611bd6575b81611bc560209383615221565b8101031261042d5751611b56611b2d565b3d9150611bb8565b90506020813d602011611c10575b81611bf960209383615221565b8101031261039357611c0a906152a5565b38611a36565b3d9150611bec565b90506020813d602011611c43575b81611c3360209383615221565b8101031261042d57516020611a03565b3d9150611c26565b503461032257602036600319011261032257611c65615058565b611c6d615448565b5060ff60055460a01c1615610343576001600160a01b03163381141580611dec575b80611cec575b610f87576002546040516327cf697360e21b815260048101929092528290829060249082906001600160a01b03165afa90811561032557826104cb9392610a3b575050604051918291602083526020830190615166565b50604051631d6c8e3f60e21b81527f00000000000000000000000000000000000000000000000000000000000000006001600160a01b031690602081600481855afa9081156103f7578491611db8575b50604051632474521560e21b815260048101919091523360248201529060209082908180604481015b03915afa90811561039f578391611d7e575b5015611c95565b90506020813d602011611db0575b81611d9960209383615221565b8101031261039357611daa906152a5565b38611d77565b3d9150611d8c565b90506020813d602011611de4575b81611dd360209383615221565b8101031261042d5751611d65611d3c565b3d9150611dc6565b50604051636b366cb560e01b81527f00000000000000000000000000000000000000000000000000000000000000006001600160a01b031690602081600481855afa9081156103f7578491611eb8575b50604051632474521560e21b815260048101919091523360248201529060209082908180604481015b03915afa90811561039f578391611e7e575b5015611c8f565b90506020813d602011611eb0575b81611e9960209383615221565b8101031261039357611eaa906152a5565b38611e77565b3d9150611e8c565b90506020813d602011611ee4575b81611ed360209383615221565b8101031261042d5751611e65611e3c565b3d9150611ec6565b50346103225760403660031901126103225760043590611f0a615157565b604051636b366cb560e01b81529092907f00000000000000000000000000000000000000000000000000000000000000006001600160a01b031690602081600481855afa9081156103f75784916121c4575b50604051632474521560e21b81526004810191909152336024820152602081604481855afa9081156103f757849161218a575b501590816120b2575b50610f8757600154604051635c975abb60e01b815290602090829060049082906001600160a01b03165afa90811561039f578391612078575b506103525760ff60055460a01c161561034357819260001461203a576003546001600160a01b0316803b1561033057604051632f29863960e21b8152600481019290925233602483015282908290818381604481015b03925af180156103255761031157505080f35b6003546001600160a01b0316803b156103305760405163f6e18fed60e01b815260048101929092523360248301528290829081838160448101612027565b90506020813d6020116120aa575b8161209360209383615221565b81010312610393576120a4906152a5565b38611fd1565b3d9150612086565b604051631d6c8e3f60e21b8152909150602081600481855afa9081156103f7578491612156575b50604051632474521560e21b815260048101919091523360248201529060209082908180604481015b03915afa90811561039f57839161211c575b501538611f98565b90506020813d60201161214e575b8161213760209383615221565b8101031261039357612148906152a5565b38612114565b3d915061212a565b90506020813d602011612182575b8161217160209383615221565b8101031261042d57516121026120d9565b3d9150612164565b90506020813d6020116121bc575b816121a560209383615221565b810103126103eb576121b6906152a5565b38611f8f565b3d9150612198565b90506020813d6020116121ef575b816121df60209383615221565b8101031261042d57516020611f5c565b3d91506121d2565b50346103225780600319360112610322576004546040516001600160a01b039091168152602090f35b50346103225780600319360112610322576002546040516001600160a01b039091168152602090f35b50346103225780600319360112610322576040517f00000000000000000000000000000000000000000000000000000000000000006001600160a01b03168152602090f35b5034610322576040366003190112610322576122a861506e565b9060ff60055460a01c1615610cd157604051632474521560e21b815260048035908201526001600160a01b039092166024830152602082806044810103817f00000000000000000000000000000000000000000000000000000000000000006001600160a01b03165afa90811561051857809161232d575b6020826040519015158152f35b90506020823d602011612362575b8161234860209383615221565b81010312610322575061235c6020916152a5565b38612320565b3d915061233b565b503461032257612379366150e5565b604051636b366cb560e01b81529597969295929491927f00000000000000000000000000000000000000000000000000000000000000006001600160a01b031690602081600481855afa9081156125e657899161262b575b50604051632474521560e21b81526004810191909152336024820152602081604481855afa9081156125e65789916125f1575b5015908161250e575b506124ff57600154604051635c975abb60e01b815290602090829060049082906001600160a01b03165afa9081156124f45788916124ba575b506124ab5760ff60055460a01c161561249c57600354969788976001600160a01b031693843b156124985788968793610f3c926040519a8b998a988997632fa4b72f60e11b8952339660048a016153ce565b8880fd5b63028c4d0760e01b8752600487fd5b6301ca793160e61b8752600487fd5b90506020813d6020116124ec575b816124d560209383615221565b81010312611855576124e6906152a5565b38612446565b3d91506124c8565b6040513d8a823e3d90fd5b631a27eac360e11b8752600487fd5b604051631d6c8e3f60e21b8152909150602081600481855afa9081156125e65789916125b2575b50604051632474521560e21b815260048101919091523360248201529060209082908180604481015b03915afa9081156124f4578891612578575b50153861240d565b90506020813d6020116125aa575b8161259360209383615221565b81010312611855576125a4906152a5565b38612570565b3d9150612586565b90506020813d6020116125de575b816125cd60209383615221565b8101031261042d575161255e612535565b3d91506125c0565b6040513d8b823e3d90fd5b90506020813d602011612623575b8161260c60209383615221565b810103126124985761261d906152a5565b38612404565b3d91506125ff565b90506020813d602011612656575b8161264660209383615221565b8101031261042d575160206123d1565b3d9150612639565b503461032257602036600319011261032257612678615058565b600154604051631d6c8e3f60e21b81526001600160a01b0390911690602081600481855afa9081156103f7578491612800575b50604051632474521560e21b81526004810191909152336024820152602081604481855afa9081156103f75784916127c6575b50156103aa57602060049160405192838092635c975abb60e01b82525afa90811561039f57839161278c575b506103525760ff60055460a01c1615610343576001600160a01b031680156103345781907f00000000000000000000000000000000000000000000000000000000000000006001600160a01b031690813b15610330578291602483926040519485938492630232d68360e61b845260048401525af18015610325576103115750f35b90506020813d6020116127be575b816127a760209383615221565b81010312610393576127b8906152a5565b3861270a565b3d915061279a565b90506020813d6020116127f8575b816127e160209383615221565b810103126103eb576127f2906152a5565b386126de565b3d91506127d4565b90506020813d60201161282b575b8161281b60209383615221565b8101031261042d575160206126ab565b3d915061280e565b50346103225760a0366003190112610322576004356001600160401b038111610514576128649036906004016150b8565b91906024356001600160401b038111610393576128859036906004016150b8565b6044929192356001600160401b038111610b82576128a79036906004016150b8565b90926064356001600160401b038111612b1c576128c89036906004016150b8565b92909760843561ffff81168091036124985760015460405163f7be43fb60e01b81526001600160a01b0390911690602081600481855afa908115612ade578b91612ae9575b50604051632474521560e21b81526004810191909152336024820152602081604481855afa908115612ade578b91612aa4575b5015612a9557602060049160405192838092635c975abb60e01b82525afa908115612a8a578a91612a4c575b50612a3d5760ff60055460a01c1615612a2e5760025498998a996001600160a01b031695863b15612a2a578a9889956040519b8c9a8b998a98631da82a6b60e31b8a523360048b015260248a0160e0905260e48a01906129cb926153ad565b906003198983030160448a01526129e1926153ad565b906003198783030160648801526129f7926153ad565b90600319858303016084860152612a0d926153ad565b9060a48301523360c483015203925af18015610325576103115750f35b8a80fd5b63028c4d0760e01b8952600489fd5b6301ca793160e61b8952600489fd5b90506020813d602011612a82575b81612a6760209383615221565b81010312612a7e57612a78906152a5565b3861296c565b8980fd5b3d9150612a5a565b6040513d8c823e3d90fd5b63971730a960e01b8a5260048afd5b90506020813d602011612ad6575b81612abf60209383615221565b81010312612a2a57612ad0906152a5565b38612940565b3d9150612ab2565b6040513d8d823e3d90fd5b90506020813d602011612b14575b81612b0460209383615221565b8101031261042d5751602061290d565b3d9150612af7565b8680fd5b5034610322576040366003190112610322576004356001600160401b03811161051457612b519036906004016150b8565b9190612b5b615157565b9260018060a01b0360015416604051631d6c8e3f60e21b8152602081600481855afa908115610b45578591612d00575b50604051632474521560e21b81526004810191909152336024820152602081604481855afa908115610b45578591612cc6575b5015612cb757602060049160405192838092635c975abb60e01b82525afa9081156103f7578491612c7d575b506114cc5760ff60055460a01c16156108f0578293600014612c44576002546001600160a01b031691823b15612c3f576120279284928360405180968195829463e7714a2160e01b845233916004850161541f565b505050fd5b6002546001600160a01b031691823b15612c3f576120279284928360405180968195829463f384e23f60e01b845233916004850161541f565b90506020813d602011612caf575b81612c9860209383615221565b810103126103eb57612ca9906152a5565b38612bea565b3d9150612c8b565b637bfa4b9f60e01b8452600484fd5b90506020813d602011612cf8575b81612ce160209383615221565b81010312610b8257612cf2906152a5565b38612bbe565b3d9150612cd4565b90506020813d602011612d2b575b81612d1b60209383615221565b8101031261042d57516020612b8b565b3d9150612d0e565b503461032257602036600319011261032257612d4d615058565b600154604051631d6c8e3f60e21b81526001600160a01b0390911690602081600481855afa9081156103f7578491612ed5575b50604051632474521560e21b81526004810191909152336024820152602081604481855afa9081156103f7578491612e9b575b50156103aa57602060049160405192838092635c975abb60e01b82525afa90811561039f578391612e61575b506103525760ff60055460a01c1615610343576001600160a01b031680156103345781907f00000000000000000000000000000000000000000000000000000000000000006001600160a01b031690813b15610330578291602483926040519485938492631e311e6360e21b845260048401525af18015610325576103115750f35b90506020813d602011612e93575b81612e7c60209383615221565b8101031261039357612e8d906152a5565b38612ddf565b3d9150612e6f565b90506020813d602011612ecd575b81612eb660209383615221565b810103126103eb57612ec7906152a5565b38612db3565b3d9150612ea9565b90506020813d602011612f00575b81612ef060209383615221565b8101031261042d57516020612d80565b3d9150612ee3565b503461032257806003193601126103225760ff60055460a01c1615610cd157604051635c975abb60e01b8152906020826004817f00000000000000000000000000000000000000000000000000000000000000006001600160a01b03165afa90811561051857809161232d576020826040519015158152f35b503461032257602036600319011261032257604051636b366cb560e01b81527f00000000000000000000000000000000000000000000000000000000000000006001600160a01b031690602081600481855afa90811561039f5783916131f5575b50604051632474521560e21b81526004810191909152336024820152602081604481855afa90811561039f5783916131bb575b501590816130e3575b5061052457600154604051635c975abb60e01b815290602090829060049082906001600160a01b03165afa9081156103255782916130a9575b50610ce05760055460ff8160a01c16156103435781906001600160a01b0316803b15610cce5760405163157c4adf60e21b81526004803590820152336024820152908290829081838160448101610f3c565b90506020813d6020116130db575b816130c460209383615221565b81010312610514576130d5906152a5565b38613057565b3d91506130b7565b604051631d6c8e3f60e21b8152909150602081600481855afa90811561039f578391613187575b50604051632474521560e21b815260048101919091523360248201529060209082908180604481015b03915afa90811561032557829161314d575b50153861301e565b90506020813d60201161317f575b8161316860209383615221565b8101031261051457613179906152a5565b38613145565b3d915061315b565b90506020813d6020116131b3575b816131a260209383615221565b8101031261042d575161313361310a565b3d9150613195565b90506020813d6020116131ed575b816131d660209383615221565b81010312610393576131e7906152a5565b38613015565b3d91506131c9565b90506020813d602011613220575b8161321060209383615221565b8101031261042d57516020612fe2565b3d9150613203565b5034610322576040366003190112610322576004356001600160401b038111610514576132599036906004016150b8565b61326161506e565b600154604051631d6c8e3f60e21b81526001600160a01b0390911690602081600481855afa9081156134b7578691613483575b50604051632474521560e21b815260048101919091523360248201529060209082908180604481015b03915afa908115610b45578591613449575b5015612cb75760ff60055460a01c16156114bd576001600160a01b031690811561343a5760405160208101908285833761331c60208285810189838201520301601f198101835282615221565b51902060405160208101906e73747564656e74526567697374727960881b8252600f815261334b602f82615221565b51902081036133a25750600280546001600160a01b031916831790555b806040519384378201918383528033930390207f508230d9e989b49c651e1c7be29de727f16d9c1027f7660466911e442c3121fb8480a480f35b60405160208101906c31b7bab939b2a6b0b730b3b2b960991b8252600d81526133cc602d82615221565b51902081036133ed5750600380546001600160a01b03191683179055613368565b604051602081019070195b9c9bdb1b1b595b9d14995c5d595cdd607a1b82526011815261341b603182615221565b5190200361143a57600480546001600160a01b03191683179055613368565b6303777f6960e51b8452600484fd5b90506020813d60201161347b575b8161346460209383615221565b81010312610b8257613475906152a5565b386132cf565b3d9150613457565b90506020813d6020116134af575b8161349e60209383615221565b8101031261042d57516132bd613294565b3d9150613491565b6040513d88823e3d90fd5b5034610322576134d1366150e5565b604051636b366cb560e01b81529597969295929491927f00000000000000000000000000000000000000000000000000000000000000006001600160a01b031690602081600481855afa9081156125e657899161373c575b50604051632474521560e21b81526004810191909152336024820152602081604481855afa9081156125e6578991613702575b5015908161362a575b506124ff57600154604051635c975abb60e01b815290602090829060049082906001600160a01b03165afa9081156124f45788916135f0575b506124ab5760ff60055460a01c161561249c57600354969788976001600160a01b031693843b156124985788968793610f3c926040519a8b998a98899763bc187d9960e01b8952339660048a016153ce565b90506020813d602011613622575b8161360b60209383615221565b810103126118555761361c906152a5565b3861359e565b3d91506135fe565b604051631d6c8e3f60e21b8152909150602081600481855afa9081156125e65789916136ce575b50604051632474521560e21b815260048101919091523360248201529060209082908180604481015b03915afa9081156124f4578891613694575b501538613565565b90506020813d6020116136c6575b816136af60209383615221565b81010312611855576136c0906152a5565b3861368c565b3d91506136a2565b90506020813d6020116136fa575b816136e960209383615221565b8101031261042d575161367a613651565b3d91506136dc565b90506020813d602011613734575b8161371d60209383615221565b810103126124985761372e906152a5565b3861355c565b3d9150613710565b90506020813d602011613767575b8161375760209383615221565b8101031261042d57516020613529565b3d915061374a565b503461032257602036600319011261032257604051636b366cb560e01b81527f00000000000000000000000000000000000000000000000000000000000000006001600160a01b031690602081600481855afa90811561039f5783916139e5575b50604051632474521560e21b81526004810191909152336024820152602081604481855afa90811561039f5783916139ab575b501590816138d3575b5061052457600154604051635c975abb60e01b815290602090829060049082906001600160a01b03165afa908115610325578291613899575b50610ce05760ff60055460a01c1615610cd15760045481906001600160a01b0316803b15610cce57604051632c33a39b60e01b81526004803590820152336024820152908290829081838160448101610f3c565b90506020813d6020116138cb575b816138b460209383615221565b81010312610514576138c5906152a5565b38613845565b3d91506138a7565b604051631d6c8e3f60e21b8152909150602081600481855afa90811561039f578391613977575b50604051632474521560e21b815260048101919091523360248201529060209082908180604481015b03915afa90811561032557829161393d575b50153861380c565b90506020813d60201161396f575b8161395860209383615221565b8101031261051457613969906152a5565b38613935565b3d915061394b565b90506020813d6020116139a3575b8161399260209383615221565b8101031261042d57516139236138fa565b3d9150613985565b90506020813d6020116139dd575b816139c660209383615221565b81010312610393576139d7906152a5565b38613803565b3d91506139b9565b90506020813d602011613a10575b81613a0060209383615221565b8101031261042d575160206137d0565b3d91506139f3565b5034610322578060031936011261032257600554604051635c975abb60e01b81529160a09190911c60ff169080806020856004817f00000000000000000000000000000000000000000000000000000000000000006001600160a01b03165afa948515613bcf578195613b92575b506006549084613ab5575b5060a094604051941515855215156020850152604084015260608301526080820152f35b6002546040516330c6189f60e01b8152969450909250602090869060049082906001600160a01b03165afa8015610325578290613b5f575b60048054604051631c930fa560e01b81529750919391602091889182906001600160a01b03165afa9081156105185790613b2c575b92945060a0613a91565b506020853d602011613b57575b81613b4660209383615221565b8101031261042d5760a09451613b22565b3d9150613b39565b506020853d602011613b8a575b81613b7960209383615221565b8101031261042d5760049451613aed565b3d9150613b6c565b9094506020813d602011613bc7575b81613bae60209383615221565b81010312610b8257613bc084916152a5565b9490613a86565b3d9150613ba1565b50604051903d90823e3d90fd5b5034610322578060031936011261032257600154604051631d6c8e3f60e21b81526001600160a01b0390911690602081600481855afa90811561039f578391613d0f575b50604051632474521560e21b815260048101919091523360248201529060209082908180604481015b03915afa908115610325578291613cd5575b5015613cc65760ff60055460a01c1615610cd157807f00000000000000000000000000000000000000000000000000000000000000006001600160a01b0316803b15610cce57818091600460405180948193631fa5d41d60e11b83525af18015610325576103115750f35b637bfa4b9f60e01b8152600490fd5b90506020813d602011613d07575b81613cf060209383615221565b8101031261051457613d01906152a5565b38613c5b565b3d9150613ce3565b90506020813d602011613d3b575b81613d2a60209383615221565b8101031261042d5751613c49613c20565b3d9150613d1d565b503461032257608036600319011261032257613d5d615058565b613d6561506e565b6044356001600160a01b038116908190036103eb576064356001600160a01b0381169290839003610b8257600154604051631d6c8e3f60e21b81526001600160a01b0390911690602081600481855afa908115613f77578791613f43575b50604051632474521560e21b815260048101919091523360248201529060209082908180604481015b03915afa9081156134b7578691613f09575b5015613efa576005549360ff8560a01c16613eeb576001600160a01b031680158015613eda575b8015613ed2575b8015613eca575b613ebb576001600160601b0360a01b600254161760025560018060a01b03166001600160601b0360a01b60035416176003556001600160601b0360a01b6004541617600455600160a01b916affffffffffffffffffffff60a81b161717600555337f6bc0723562497c91d6cc15ca8a46b9cef65f8d2575c8dc4f89eefa2d8e0eb87b8280a280f35b6303777f6960e51b8652600486fd5b508315613e33565b508215613e2c565b506001600160a01b03821615613e25565b6308cc254760e01b8652600486fd5b637bfa4b9f60e01b8552600485fd5b90506020813d602011613f3b575b81613f2460209383615221565b8101031261185957613f35906152a5565b38613dfe565b3d9150613f17565b90506020813d602011613f6f575b81613f5e60209383615221565b8101031261042d5751613dec613dc3565b3d9150613f51565b6040513d89823e3d90fd5b50346103225780600319360112610322576003546040516001600160a01b039091168152602090f35b503461032257602036600319011261032257613fc5615058565b6005549060ff8260a01c16156108f0576001600160a01b031633811415806141c0575b806140c0575b610a5e5760405163090cae3160e31b81526004810191909152908290829060249082906001600160a01b03165afa9182156105185780918193614056575b614048836104cb86604051938493604085526040850190615084565b908382036020850152615021565b915091503d8083833e6140698183615221565b8101916040828403126103225781516001600160401b0381116105145783614092918401615350565b916020810151916001600160401b0383116103225750614048936104cb926140ba92016152eb565b9261402c565b50604051631d6c8e3f60e21b81527f00000000000000000000000000000000000000000000000000000000000000006001600160a01b031690602081600481855afa908115610b4557859161418c575b50604051632474521560e21b815260048101919091523360248201529060209082908180604481015b03915afa9081156103f7578491614152575b5015613fee565b90506020813d602011614184575b8161416d60209383615221565b810103126103eb5761417e906152a5565b3861414b565b3d9150614160565b90506020813d6020116141b8575b816141a760209383615221565b8101031261042d5751614139614110565b3d915061419a565b50604051636b366cb560e01b81527f00000000000000000000000000000000000000000000000000000000000000006001600160a01b031690602081600481855afa908115610b4557859161428c575b50604051632474521560e21b815260048101919091523360248201529060209082908180604481015b03915afa9081156103f7578491614252575b5015613fe8565b90506020813d602011614284575b8161426d60209383615221565b810103126103eb5761427e906152a5565b3861424b565b3d9150614260565b90506020813d6020116142b8575b816142a760209383615221565b8101031261042d5751614239614210565b3d915061429a565b5034610322578060031936011261032257600154604051631d6c8e3f60e21b81526001600160a01b0390911690602081600481855afa90811561039f5783916143cf575b50604051632474521560e21b815260048101919091523360248201529060209082908180604481015b03915afa908115610325578291614395575b5015613cc6576006546000198114614381576001018060065533907f91a6488103e1a58022c791b02d87620b0769153c8e8909f74eb8e118385a4cde8380a380f35b634e487b7160e01b82526011600452602482fd5b90506020813d6020116143c7575b816143b060209383615221565b81010312610514576143c1906152a5565b3861433f565b3d91506143a3565b90506020813d6020116143fb575b816143ea60209383615221565b8101031261042d575161432d614304565b3d91506143dd565b503461032257602036600319011261032257600435906005549160ff8360a01c1615610343576003546040516301a5a06760e11b81526004810183905290602090829060249082906001600160a01b03165afa90811561039f578391614787575b501561033457604051636b366cb560e01b81527f00000000000000000000000000000000000000000000000000000000000000006001600160a01b031690602081600481855afa9081156103f7578491614754575b50604051632474521560e21b81526004810191909152336024820152602081604481855afa9081156103f757849161471a575b50159081614642575b50610f87576040516316e9f51f60e11b81526004810191909152918190839060249082906001600160a01b03165afa8015613bcf5781928291614589575b5060405191604083016040845284518091526020606085019501915b81811061456a5784806104cb88878382036020850152615021565b82516001600160a01b031686526020958601959092019160010161454f565b9250503d8082843e61459b8184615221565b82016040838203126105145782516001600160401b0381116103935783019281601f85011215610393578351936145d1856152c6565b946145df6040519687615221565b80865260208087019160051b8301019184831161185957602001905b82821061462a575050506020810151906001600160401b0382116103eb576146249291016152eb565b38614533565b60208091614637846152b2565b8152019101906145fb565b604051631d6c8e3f60e21b8152909150602081600481855afa9081156103f75784916146e6575b50604051632474521560e21b815260048101919091523360248201529060209082908180604481015b03915afa90811561039f5783916146ac575b5015386144f5565b90506020813d6020116146de575b816146c760209383615221565b81010312610393576146d8906152a5565b386146a4565b3d91506146ba565b90506020813d602011614712575b8161470160209383615221565b8101031261042d5751614692614669565b3d91506146f4565b90506020813d60201161474c575b8161473560209383615221565b810103126103eb57614746906152a5565b386144ec565b3d9150614728565b90506020813d60201161477f575b8161476f60209383615221565b8101031261042d575160206144b9565b3d9150614762565b90506020813d6020116147b9575b816147a260209383615221565b81010312610393576147b3906152a5565b38614464565b3d9150614795565b503461032257806003193601126103225760049060ff60055460a01c1615614851578154604051631c930fa560e01b81529260209184919082906001600160a01b03165afa908115610518579061481e575b602090604051908152f35b506020813d602011614849575b8161483860209383615221565b8101031261042d5760209051614813565b3d915061482b565b63028c4d0760e01b8152fd5b50346103225760203660031901126103225780608060405161487e81615206565b828152826020820152826040820152826060820152015260ff60055460a01c1615610cd15760249060a0600180821b036004541660405193848092630655d61960e21b825260043560048301525afa918215613bcf578192614b57575b5081516001600160a01b031633141580614a57575b80614957575b610524576040805183516001600160a01b03168152602080850151908201529083015190916004821015614943575060a09260809160408401526060810151606084015201516080820152f35b634e487b7160e01b81526021600452602490fd5b50604051631d6c8e3f60e21b81527f00000000000000000000000000000000000000000000000000000000000000006001600160a01b031690602081600481855afa90811561039f578391614a23575b50604051632474521560e21b815260048101919091523360248201529060209082908180604481015b03915afa9081156103255782916149e9575b50156148f6565b90506020813d602011614a1b575b81614a0460209383615221565b8101031261051457614a15906152a5565b386149e2565b3d91506149f7565b90506020813d602011614a4f575b81614a3e60209383615221565b8101031261042d57516149d06149a7565b3d9150614a31565b50604051636b366cb560e01b81527f00000000000000000000000000000000000000000000000000000000000000006001600160a01b031690602081600481855afa90811561039f578391614b23575b50604051632474521560e21b815260048101919091523360248201529060209082908180604481015b03915afa908115610325578291614ae9575b50156148f0565b90506020813d602011614b1b575b81614b0460209383615221565b8101031261051457614b15906152a5565b38614ae2565b3d9150614af7565b90506020813d602011614b4f575b81614b3e60209383615221565b8101031261042d5751614ad0614aa7565b3d9150614b31565b90915060a0813d60a011614bcc575b81614b7360a09383615221565b810103126105145760405190614b8882615206565b614b91816152b2565b82526020810151602083015260408101519060048210156103eb576080916040840152606081015160608401520151608082015290386148db565b3d9150614b66565b50346103225760203660031901126103225760015460405163f7be43fb60e01b81526001600160a01b0390911690602081600481855afa90811561039f578391614d67575b50604051632474521560e21b81526004810191909152336024820152602081604481855afa90811561039f578391614d2d575b5015614d1e57602060049160405192838092635c975abb60e01b82525afa908115610325578291614ce4575b50610ce05760ff60055460a01c1615610cd1576004546001600160a01b0316803b1561051457604051634c0adda960e01b8152600480359082015233602482015290829081908390604490829084905af18015613bcf57614cd65780f35b614cdf91615221565b388180f35b90506020813d602011614d16575b81614cff60209383615221565b8101031261051457614d10906152a5565b38614c78565b3d9150614cf2565b63971730a960e01b8252600482fd5b90506020813d602011614d5f575b81614d4860209383615221565b8101031261039357614d59906152a5565b38614c4c565b3d9150614d3b565b90506020813d602011614d92575b81614d8260209383615221565b8101031261039357516020614c19565b3d9150614d75565b50346103225780600319360112610322576001546040516001600160a01b039091168152602090f35b5034610322576020366003190112610322578060a0604051614de4816151d5565b8281526060602082015260606040820152826060820152826080820152015260ff60055460a01c1615610cd157600354604051630b91e28d60e01b8152600480359082015291908190839060249082906001600160a01b03165afa918215613bcf578192614ebb575b826040518091602082528051602083015260a0614e92614e7c602084015160c0604087015260e0860190614ffc565b6040840151858203601f19016060870152614ffc565b9161ffff606082015116608085015261ffff608082015116828501520151151560c08301520390f35b9091503d8083833e614ecd8183615221565b810190602081830312610393578051906001600160401b0382116103eb57019060c0828203126103935760405192614f04846151d5565b8251845260208301516001600160401b0381116105145782614f27918501615242565b60208501526040830151906001600160401b038211610322575091614f5360a092614f80948301615242565b6040850152614f6460608201615296565b6060850152614f7560808201615296565b6080850152016152a5565b60a08201523880614e4d565b50346103225780600319360112610322576005546040516001600160a01b039091168152602090f35b90503461051457816003193601126105145760209060ff60055460a01c1615158152f35b60005b838110614fec5750506000910152565b8181015183820152602001614fdc565b9060209161501581518092818552858086019101614fd9565b601f01601f1916010190565b906020808351928381520192019060005b81811061503f5750505090565b825160ff16845260209384019390920191600101615032565b600435906001600160a01b038216820361042d57565b602435906001600160a01b038216820361042d57565b906020808351928381520192019060005b8181106150a25750505090565b8251845260209384019390920191600101615095565b9181601f8401121561042d578235916001600160401b03831161042d576020838186019501011161042d57565b9060a060031983011261042d57600435916024356001600160401b03811161042d5781615114916004016150b8565b92909291604435906001600160401b03821161042d57615136916004016150b8565b909160643560ff8116810361042d579060843561ffff8116810361042d5790565b60243590811515820361042d57565b9060a0806151bc6151aa615198615186875160c0885260c0880190614ffc565b60208801518782036020890152614ffc565b60408701518682036040880152614ffc565b60608601518582036060870152614ffc565b9361ffff60808201511660808501520151151591015290565b60c081019081106001600160401b038211176151f057604052565b634e487b7160e01b600052604160045260246000fd5b60a081019081106001600160401b038211176151f057604052565b90601f801991011681019081106001600160401b038211176151f057604052565b81601f8201121561042d5780516001600160401b0381116151f05760405192615275601f8301601f191660200185615221565b8184526020828401011161042d576152939160208085019101614fd9565b90565b519061ffff8216820361042d57565b5190811515820361042d57565b51906001600160a01b038216820361042d57565b6001600160401b0381116151f05760051b60200190565b519060ff8216820361042d57565b9080601f8301121561042d578151615302816152c6565b926153106040519485615221565b81845260208085019260051b82010192831161042d57602001905b8282106153385750505090565b60208091615345846152dd565b81520191019061532b565b9080601f8301121561042d578151615367816152c6565b926153756040519485615221565b81845260208085019260051b82010192831161042d57602001905b82821061539d5750505090565b8151815260209182019101615390565b908060209392818452848401376000828201840152601f01601f1916010190565b96929360a0969998956153f860ff9461ffff97615406958c5260c060208d015260c08c01916153ad565b9189830360408b01526153ad565b97166060860152166080840152600180831b0316910152565b91602091615438919594956040855260408501916153ad565b6001600160a01b03909416910152565b60405190615455826151d5565b600060a0836060815260606020820152606060408201526060808201528260808201520152565b91909160c08184031261042d5760405190615496826151d5565b819381516001600160401b03811161042d57816154b4918401615242565b835260208201516001600160401b03811161042d57816154d5918401615242565b602084015260408201516001600160401b03811161042d57816154f9918401615242565b60408401526060820151906001600160401b03821161042d578261552660a0949261554294869401615242565b606086015261553760808201615296565b6080860152016152a5565b910152565b9060208282031261042d5781516001600160401b03811161042d57615293920161547c56fea264697066735822122046095face5674451346eb0c98ba1e2cd4d55ac5c7c7df3cb1459c1f56bb21ebd64736f6c634300081c0033",
  "linkReferences": {},
  "deployedLinkReferences": {}
}