{
  "_format": "hh-sol-artifact-1",
  "contractName": "CRID",
  "sourceName": "contracts/core/CRID.sol",
  "abi": [
    {
      "inputs": [
        {
          "internalType": "address",
          "name": "_accessControl",
          "type": "address"
        }
      ],
      "stateMutability": "nonpayable",
      "type": "constructor"
    },
    {
      "inputs": [],
      "name": "InvalidAccessControlAddress",
      "type": "error"
    },
    {
      "inputs": [],
      "name": "InvalidAddress",
      "type": "error"
    },
    {
      "inputs": [],
      "name": "InvalidContract",
      "type": "error"
    },
    {
      "inputs": [],
      "name": "InvalidInput",
      "type": "error"
    },
    {
      "inputs": [],
      "name": "InvalidUser",
      "type": "error"
    },
    {
      "inputs": [],
      "name": "NotAdmin",
      "type": "error"
    },
    {
      "inputs": [],
      "name": "NotCoordinator",
      "type": "error"
    },
    {
      "inputs": [],
      "name": "NotStudent",
      "type": "error"
    },
    {
      "inputs": [],
      "name": "ReentrantCall",
      "type": "error"
    },
    {
      "inputs": [],
      "name": "SystemAlreadyInitialized",
      "type": "error"
    },
    {
      "inputs": [],
      "name": "SystemNotInitialized",
      "type": "error"
    },
    {
      "inputs": [],
      "name": "SystemPaused",
      "type": "error"
    },
    {
      "inputs": [],
      "name": "UnauthorizedAccess",
      "type": "error"
    },
    {
      "anonymous": false,
      "inputs": [
        {
          "indexed": true,
          "internalType": "string",
          "name": "contractName",
          "type": "string"
        },
        {
          "indexed": true,
          "internalType": "address",
          "name": "newAddress",
          "type": "address"
        },
        {
          "indexed": true,
          "internalType": "address",
          "name": "agent",
          "type": "address"
        }
      ],
      "name": "ContractUpdated",
      "type": "event"
    },
    {
      "anonymous": false,
      "inputs": [
        {
          "indexed": true,
          "internalType": "address",
          "name": "agent",
          "type": "address"
        }
      ],
      "name": "SystemInitialized",
      "type": "event"
    },
    {
      "anonymous": false,
      "inputs": [
        {
          "indexed": true,
          "internalType": "uint256",
          "name": "newVersion",
          "type": "uint256"
        },
        {
          "indexed": true,
          "internalType": "address",
          "name": "agent",
          "type": "address"
        }
      ],
      "name": "SystemUpgraded",
      "type": "event"
    },
    {
      "inputs": [],
      "name": "ACCESS_CONTROL",
      "outputs": [
        {
          "internalType": "contract ICRIDAccessControl",
          "name": "",
          "type": "address"
        }
      ],
      "stateMutability": "view",
      "type": "function"
    },
    {
      "inputs": [],
      "name": "accessControl",
      "outputs": [
        {
          "internalType": "contract CRIDAccessControl",
          "name": "",
          "type": "address"
        }
      ],
      "stateMutability": "view",
      "type": "function"
    },
    {
      "inputs": [
        {
          "internalType": "address",
          "name": "coordinator",
          "type": "address"
        }
      ],
      "name": "addCoordinator",
      "outputs": [],
      "stateMutability": "nonpayable",
      "type": "function"
    },
    {
      "inputs": [
        {
          "internalType": "uint256",
          "name": "id",
          "type": "uint256"
        },
        {
          "internalType": "string",
          "name": "name",
          "type": "string"
        },
        {
          "internalType": "string",
          "name": "description",
          "type": "string"
        },
        {
          "internalType": "uint8",
          "name": "credits",
          "type": "uint8"
        },
        {
          "internalType": "uint16",
          "name": "maxStudents",
          "type": "uint16"
        }
      ],
      "name": "addCourse",
      "outputs": [],
      "stateMutability": "nonpayable",
      "type": "function"
    },
    {
      "inputs": [
        {
          "internalType": "address",
          "name": "student",
          "type": "address"
        },
        {
          "internalType": "uint256",
          "name": "courseId",
          "type": "uint256"
        },
        {
          "internalType": "uint8",
          "name": "grade",
          "type": "uint8"
        }
      ],
      "name": "addGrade",
      "outputs": [],
      "stateMutability": "nonpayable",
      "type": "function"
    },
    {
      "inputs": [
        {
          "internalType": "address",
          "name": "student",
          "type": "address"
        }
      ],
      "name": "addStudent",
      "outputs": [],
      "stateMutability": "nonpayable",
      "type": "function"
    },
    {
      "inputs": [
        {
          "internalType": "uint256",
          "name": "requestId",
          "type": "uint256"
        }
      ],
      "name": "approveEnrollmentRequest",
      "outputs": [],
      "stateMutability": "nonpayable",
      "type": "function"
    },
    {
      "inputs": [
        {
          "internalType": "uint256",
          "name": "requestId",
          "type": "uint256"
        }
      ],
      "name": "cancelEnrollmentRequest",
      "outputs": [],
      "stateMutability": "nonpayable",
      "type": "function"
    },
    {
      "inputs": [],
      "name": "courseManager",
      "outputs": [
        {
          "internalType": "contract ICourseManager",
          "name": "",
          "type": "address"
        }
      ],
      "stateMutability": "view",
      "type": "function"
    },
    {
      "inputs": [],
      "name": "enrollmentRequest",
      "outputs": [
        {
          "internalType": "contract IEnrollmentRequest",
          "name": "",
          "type": "address"
        }
      ],
      "stateMutability": "view",
      "type": "function"
    },
    {
      "inputs": [
        {
          "internalType": "uint256",
          "name": "courseId",
          "type": "uint256"
        }
      ],
      "name": "getCourse",
      "outputs": [
        {
          "components": [
            {
              "internalType": "uint256",
              "name": "id",
              "type": "uint256"
            },
            {
              "internalType": "string",
              "name": "name",
              "type": "string"
            },
            {
              "internalType": "string",
              "name": "description",
              "type": "string"
            },
            {
              "internalType": "uint16",
              "name": "credits",
              "type": "uint16"
            },
            {
              "internalType": "uint16",
              "name": "maxStudents",
              "type": "uint16"
            },
            {
              "internalType": "bool",
              "name": "isActive",
              "type": "bool"
            }
          ],
          "internalType": "struct ICourseManager.Course",
          "name": "course",
          "type": "tuple"
        }
      ],
      "stateMutability": "view",
      "type": "function"
    },
    {
      "inputs": [
        {
          "internalType": "uint256",
          "name": "requestId",
          "type": "uint256"
        }
      ],
      "name": "getEnrollmentRequest",
      "outputs": [
        {
          "components": [
            {
              "internalType": "address",
              "name": "student",
              "type": "address"
            },
            {
              "internalType": "uint256",
              "name": "requestDate",
              "type": "uint256"
            },
            {
              "internalType": "enum IEnrollmentRequest.RequestStatus",
              "name": "status",
              "type": "uint8"
            },
            {
              "internalType": "uint256",
              "name": "id",
              "type": "uint256"
            },
            {
              "internalType": "uint256",
              "name": "courseId",
              "type": "uint256"
            }
          ],
          "internalType": "struct IEnrollmentRequest.Request",
          "name": "request",
          "type": "tuple"
        }
      ],
      "stateMutability": "view",
      "type": "function"
    },
    {
      "inputs": [
        {
          "internalType": "address",
          "name": "studentAddress",
          "type": "address"
        }
      ],
      "name": "getEnrollmentRequestsByStudent",
      "outputs": [
        {
          "internalType": "uint256[]",
          "name": "requestIds",
          "type": "uint256[]"
        }
      ],
      "stateMutability": "view",
      "type": "function"
    },
    {
      "inputs": [],
      "name": "getEnrollmentRequestsCount",
      "outputs": [
        {
          "internalType": "uint256",
          "name": "count",
          "type": "uint256"
        }
      ],
      "stateMutability": "view",
      "type": "function"
    },
    {
      "inputs": [
        {
          "internalType": "address",
          "name": "student",
          "type": "address"
        },
        {
          "internalType": "uint256",
          "name": "courseId",
          "type": "uint256"
        }
      ],
      "name": "getGrade",
      "outputs": [
        {
          "internalType": "uint8",
          "name": "grade",
          "type": "uint8"
        }
      ],
      "stateMutability": "view",
      "type": "function"
    },
    {
      "inputs": [
        {
          "internalType": "uint256",
          "name": "courseId",
          "type": "uint256"
        }
      ],
      "name": "getGradesByCourse",
      "outputs": [
        {
          "internalType": "address[]",
          "name": "studentIds",
          "type": "address[]"
        },
        {
          "internalType": "uint8[]",
          "name": "grades",
          "type": "uint8[]"
        }
      ],
      "stateMutability": "view",
      "type": "function"
    },
    {
      "inputs": [
        {
          "internalType": "address",
          "name": "student",
          "type": "address"
        }
      ],
      "name": "getGradesByStudent",
      "outputs": [
        {
          "internalType": "uint256[]",
          "name": "courseIds",
          "type": "uint256[]"
        },
        {
          "internalType": "uint8[]",
          "name": "grades",
          "type": "uint8[]"
        }
      ],
      "stateMutability": "view",
      "type": "function"
    },
    {
      "inputs": [
        {
          "internalType": "address",
          "name": "studentAddress",
          "type": "address"
        }
      ],
      "name": "getStudentByAddress",
      "outputs": [
        {
          "components": [
            {
              "internalType": "string",
              "name": "id",
              "type": "string"
            },
            {
              "internalType": "string",
              "name": "fullName",
              "type": "string"
            },
            {
              "internalType": "string",
              "name": "email",
              "type": "string"
            },
            {
              "internalType": "string",
              "name": "program",
              "type": "string"
            },
            {
              "internalType": "uint16",
              "name": "enrollmentYear",
              "type": "uint16"
            },
            {
              "internalType": "bool",
              "name": "isActive",
              "type": "bool"
            }
          ],
          "internalType": "struct IStudentRegistry.Student",
          "name": "student",
          "type": "tuple"
        }
      ],
      "stateMutability": "view",
      "type": "function"
    },
    {
      "inputs": [
        {
          "internalType": "string",
          "name": "studentId",
          "type": "string"
        }
      ],
      "name": "getStudentById",
      "outputs": [
        {
          "components": [
            {
              "internalType": "string",
              "name": "id",
              "type": "string"
            },
            {
              "internalType": "string",
              "name": "fullName",
              "type": "string"
            },
            {
              "internalType": "string",
              "name": "email",
              "type": "string"
            },
            {
              "internalType": "string",
              "name": "program",
              "type": "string"
            },
            {
              "internalType": "uint16",
              "name": "enrollmentYear",
              "type": "uint16"
            },
            {
              "internalType": "bool",
              "name": "isActive",
              "type": "bool"
            }
          ],
          "internalType": "struct IStudentRegistry.Student",
          "name": "student",
          "type": "tuple"
        }
      ],
      "stateMutability": "view",
      "type": "function"
    },
    {
      "inputs": [],
      "name": "getSystemStatus",
      "outputs": [
        {
          "internalType": "bool",
          "name": "initialized",
          "type": "bool"
        },
        {
          "internalType": "bool",
          "name": "paused",
          "type": "bool"
        },
        {
          "internalType": "uint256",
          "name": "version",
          "type": "uint256"
        },
        {
          "internalType": "uint256",
          "name": "totalStudents",
          "type": "uint256"
        },
        {
          "internalType": "uint256",
          "name": "totalRequests",
          "type": "uint256"
        }
      ],
      "stateMutability": "view",
      "type": "function"
    },
    {
      "inputs": [],
      "name": "gradeManager",
      "outputs": [
        {
          "internalType": "contract IGradeManager",
          "name": "",
          "type": "address"
        }
      ],
      "stateMutability": "view",
      "type": "function"
    },
    {
      "inputs": [
        {
          "internalType": "bytes32",
          "name": "role",
          "type": "bytes32"
        },
        {
          "internalType": "address",
          "name": "account",
          "type": "address"
        }
      ],
      "name": "hasRole",
      "outputs": [
        {
          "internalType": "bool",
          "name": "doesHasRole",
          "type": "bool"
        }
      ],
      "stateMutability": "view",
      "type": "function"
    },
    {
      "inputs": [
        {
          "internalType": "address",
          "name": "_studentRegistry",
          "type": "address"
        },
        {
          "internalType": "address",
          "name": "_courseManager",
          "type": "address"
        },
        {
          "internalType": "address",
          "name": "_enrollmentRequest",
          "type": "address"
        },
        {
          "internalType": "address",
          "name": "_gradeManager",
          "type": "address"
        }
      ],
      "name": "initializeSystem",
      "outputs": [],
      "stateMutability": "nonpayable",
      "type": "function"
    },
    {
      "inputs": [],
      "name": "isSystemPaused",
      "outputs": [
        {
          "internalType": "bool",
          "name": "paused",
          "type": "bool"
        }
      ],
      "stateMutability": "view",
      "type": "function"
    },
    {
      "inputs": [],
      "name": "listAllCourses",
      "outputs": [
        {
          "components": [
            {
              "internalType": "uint256",
              "name": "id",
              "type": "uint256"
            },
            {
              "internalType": "string",
              "name": "name",
              "type": "string"
            },
            {
              "internalType": "string",
              "name": "description",
              "type": "string"
            },
            {
              "internalType": "uint16",
              "name": "credits",
              "type": "uint16"
            },
            {
              "internalType": "uint16",
              "name": "maxStudents",
              "type": "uint16"
            },
            {
              "internalType": "bool",
              "name": "isActive",
              "type": "bool"
            }
          ],
          "internalType": "struct ICourseManager.Course[]",
          "name": "courses",
          "type": "tuple[]"
        }
      ],
      "stateMutability": "view",
      "type": "function"
    },
    {
      "inputs": [],
      "name": "listAllEnrollmentRequests",
      "outputs": [
        {
          "components": [
            {
              "internalType": "address",
              "name": "student",
              "type": "address"
            },
            {
              "internalType": "uint256",
              "name": "requestDate",
              "type": "uint256"
            },
            {
              "internalType": "enum IEnrollmentRequest.RequestStatus",
              "name": "status",
              "type": "uint8"
            },
            {
              "internalType": "uint256",
              "name": "id",
              "type": "uint256"
            },
            {
              "internalType": "uint256",
              "name": "courseId",
              "type": "uint256"
            }
          ],
          "internalType": "struct IEnrollmentRequest.Request[]",
          "name": "requests",
          "type": "tuple[]"
        }
      ],
      "stateMutability": "view",
      "type": "function"
    },
    {
      "inputs": [],
      "name": "listAllStudents",
      "outputs": [
        {
          "components": [
            {
              "internalType": "string",
              "name": "id",
              "type": "string"
            },
            {
              "internalType": "string",
              "name": "fullName",
              "type": "string"
            },
            {
              "internalType": "string",
              "name": "email",
              "type": "string"
            },
            {
              "internalType": "string",
              "name": "program",
              "type": "string"
            },
            {
              "internalType": "uint16",
              "name": "enrollmentYear",
              "type": "uint16"
            },
            {
              "internalType": "bool",
              "name": "isActive",
              "type": "bool"
            }
          ],
          "internalType": "struct IStudentRegistry.Student[]",
          "name": "students",
          "type": "tuple[]"
        }
      ],
      "stateMutability": "view",
      "type": "function"
    },
    {
      "inputs": [],
      "name": "pauseSystem",
      "outputs": [],
      "stateMutability": "nonpayable",
      "type": "function"
    },
    {
      "inputs": [
        {
          "internalType": "string",
          "name": "id",
          "type": "string"
        },
        {
          "internalType": "string",
          "name": "fullName",
          "type": "string"
        },
        {
          "internalType": "string",
          "name": "email",
          "type": "string"
        },
        {
          "internalType": "string",
          "name": "program",
          "type": "string"
        },
        {
          "internalType": "uint16",
          "name": "enrollmentYear",
          "type": "uint16"
        }
      ],
      "name": "registerStudent",
      "outputs": [],
      "stateMutability": "nonpayable",
      "type": "function"
    },
    {
      "inputs": [
        {
          "internalType": "uint256",
          "name": "requestId",
          "type": "uint256"
        }
      ],
      "name": "rejectEnrollmentRequest",
      "outputs": [],
      "stateMutability": "nonpayable",
      "type": "function"
    },
    {
      "inputs": [
        {
          "internalType": "address",
          "name": "coordinator",
          "type": "address"
        }
      ],
      "name": "removeCoordinator",
      "outputs": [],
      "stateMutability": "nonpayable",
      "type": "function"
    },
    {
      "inputs": [
        {
          "internalType": "uint256",
          "name": "gradeId",
          "type": "uint256"
        }
      ],
      "name": "removeGrade",
      "outputs": [],
      "stateMutability": "nonpayable",
      "type": "function"
    },
    {
      "inputs": [
        {
          "internalType": "address",
          "name": "student",
          "type": "address"
        }
      ],
      "name": "removeStudent",
      "outputs": [],
      "stateMutability": "nonpayable",
      "type": "function"
    },
    {
      "inputs": [
        {
          "internalType": "uint256",
          "name": "courseId",
          "type": "uint256"
        }
      ],
      "name": "requestEnrollment",
      "outputs": [],
      "stateMutability": "nonpayable",
      "type": "function"
    },
    {
      "inputs": [
        {
          "internalType": "uint256",
          "name": "courseId",
          "type": "uint256"
        },
        {
          "internalType": "bool",
          "name": "isActive",
          "type": "bool"
        }
      ],
      "name": "setCourseStatus",
      "outputs": [],
      "stateMutability": "nonpayable",
      "type": "function"
    },
    {
      "inputs": [
        {
          "internalType": "string",
          "name": "studentId",
          "type": "string"
        },
        {
          "internalType": "bool",
          "name": "isActive",
          "type": "bool"
        }
      ],
      "name": "setStudentStatus",
      "outputs": [],
      "stateMutability": "nonpayable",
      "type": "function"
    },
    {
      "inputs": [],
      "name": "studentRegistry",
      "outputs": [
        {
          "internalType": "contract IStudentRegistry",
          "name": "",
          "type": "address"
        }
      ],
      "stateMutability": "view",
      "type": "function"
    },
    {
      "inputs": [],
      "name": "systemInitialized",
      "outputs": [
        {
          "internalType": "bool",
          "name": "",
          "type": "bool"
        }
      ],
      "stateMutability": "view",
      "type": "function"
    },
    {
      "inputs": [],
      "name": "systemVersion",
      "outputs": [
        {
          "internalType": "uint256",
          "name": "",
          "type": "uint256"
        }
      ],
      "stateMutability": "view",
      "type": "function"
    },
    {
      "inputs": [],
      "name": "unpauseSystem",
      "outputs": [],
      "stateMutability": "nonpayable",
      "type": "function"
    },
    {
      "inputs": [
        {
          "internalType": "string",
          "name": "contractName",
          "type": "string"
        },
        {
          "internalType": "address",
          "name": "newAddress",
          "type": "address"
        }
      ],
      "name": "updateContract",
      "outputs": [],
      "stateMutability": "nonpayable",
      "type": "function"
    },
    {
      "inputs": [
        {
          "internalType": "uint256",
          "name": "id",
          "type": "uint256"
        },
        {
          "internalType": "string",
          "name": "name",
          "type": "string"
        },
        {
          "internalType": "string",
          "name": "description",
          "type": "string"
        },
        {
          "internalType": "uint8",
          "name": "credits",
          "type": "uint8"
        },
        {
          "internalType": "uint16",
          "name": "maxStudents",
          "type": "uint16"
        }
      ],
      "name": "updateCourse",
      "outputs": [],
      "stateMutability": "nonpayable",
      "type": "function"
    },
    {
      "inputs": [],
      "name": "upgradeSystem",
      "outputs": [],
      "stateMutability": "nonpayable",
      "type": "function"
    }
  ],
  "bytecode": "0x60a03461016457601f615bcc38819003918201601f19168301916001600160401b038311848410176101695780849260209460405283398101031261016457516001600160a01b0381169081900361016457801561015357600180546001600160a01b031916821781556000819055608091909152600655604051615a4c908161018082396080518181816102cb01528181610559015281816106590152818161095e01528181610c90015281816110bc01528181611484015281816115c4015281816119a601528181611ceb0152818161202401528181612124015281816122440152818161258701528181612610015281816126b901528181612a580152818161312d01528181613265015281816132ca0152818161381101528181613c2301528181613ee10152818161410501528181614563015281816146630152818161490c01528181614daf0152614eaf0152f35b6340c4525b60e11b60005260046000fd5b600080fd5b634e487b7160e01b600052604160045260246000fdfe608080604052600436101561001357600080fd5b600090813560e01c9081630206850b146152d75750806302e47912146152ae5780630b91e28d146151c957806313007d55146151a057806313ba27ce14614fda5780631957586414614cf05780631c930fa514614c545780632dd3ea3e146148965780633b99686714614753578063486571881461443e5780634b4f710a146144155780634b5678d1146141d65780634c7612401461406f57806350c1d19d14613eab578063581f822314613c02578063619311af14613a9757806362a63e7e146137ea578063697a60b3146135505780636cc6cd00146132a95780637691c4ac1461323057806378c4798c1461305b57806379d5ae6d14612e4857806384f609ca14612b5b5780638cb5a0c0146129865780638f6952c91461269257806391d14854146125b65780639269db361461257157806392c16fb51461254857806398a04d4c1461251f5780639c872d2e146122145780639f3da5cc14611f73578063a826b9e314611cca578063ae9af89d14611986578063b49595c914611587578063bd06ea19146113b2578063bd629a401461109c578063be15a42114610dd9578063d263690214610dbb578063dc1d4fb714610bd7578063ed7ad82614610915578063f6bc8efe14610749578063f816b246146104505763fbd6d77e146101fa57600080fd5b346103385760203660031901126103385761021361542d565b600154604051631d6c8e3f60e21b81526001600160a01b0390911690602081600481855afa90811561040d578491610418575b50604051632474521560e21b81526004810191909152336024820152602081604481855afa90811561040d5784916103cf575b50156103c057602060049160405192838092635c975abb60e01b82525afa9081156103b5578391610377575b506103685760ff60055460a01c1615610359576001600160a01b0316801561034a5781907f00000000000000000000000000000000000000000000000000000000000000006001600160a01b031690813b15610346578291602483926040519485938492637deb6bbf60e11b845260048401525af1801561033b576103275750f35b81610331916155f6565b6103385780f35b80fd5b6040513d84823e3d90fd5b5050fd5b63b4fa3fb360e01b8252600482fd5b63028c4d0760e01b8252600482fd5b6301ca793160e61b8252600482fd5b90506020813d6020116103ad575b81610392602093836155f6565b810103126103a9576103a39061567a565b386102a5565b8280fd5b3d9150610385565b6040513d85823e3d90fd5b637bfa4b9f60e01b8352600483fd5b90506020813d602011610405575b816103ea602093836155f6565b81010312610401576103fb9061567a565b38610279565b8380fd5b3d91506103dd565b6040513d86823e3d90fd5b90506020813d602011610448575b81610433602093836155f6565b8101031261044357516020610246565b600080fd5b3d9150610426565b50346103385760203660031901126103385761046a61542d565b60ff60055460a01c1615610359576001600160a01b0316903382141580610649575b80610549575b61053a578060018060a01b036004541692602460405180958193637c0b592360e11b835260048301525afa90811561052e5780916104e5575b604051602080825281906104e190820185615459565b0390f35b90503d8082843e6104f681846155f6565b82019160208184031261052a578051916001600160401b038311610338575091610524916104e1930161581b565b386104cb565b5080fd5b604051903d90823e3d90fd5b631a27eac360e11b8152600490fd5b50604051631d6c8e3f60e21b81527f00000000000000000000000000000000000000000000000000000000000000006001600160a01b031690602081600481855afa9081156103b5578391610615575b50604051632474521560e21b815260048101919091523360248201529060209082908180604481015b03915afa90811561033b5782916105db575b5015610492565b90506020813d60201161060d575b816105f6602093836155f6565b8101031261052a576106079061567a565b386105d4565b3d91506105e9565b90506020813d602011610641575b81610630602093836155f6565b8101031261044357516105c2610599565b3d9150610623565b50604051636b366cb560e01b81527f00000000000000000000000000000000000000000000000000000000000000006001600160a01b031690602081600481855afa9081156103b5578391610715575b50604051632474521560e21b815260048101919091523360248201529060209082908180604481015b03915afa90811561033b5782916106db575b501561048c565b90506020813d60201161070d575b816106f6602093836155f6565b8101031261052a576107079061567a565b386106d4565b3d91506106e9565b90506020813d602011610741575b81610730602093836155f6565b8101031261044357516106c2610699565b3d9150610723565b50346103385760403660031901126103385761076361542d565b906024356005549260ff8460a01c16156109065760025460405163c3c5a54760e01b81526001600160a01b039283166004820181905292909160209183916024918391165afa90811561040d5784916108cc575b5015610883576003546040516301a5a06760e11b81526004810184905290602090829060249082906001600160a01b03165afa90811561040d578491610892575b5015610883579060446020926040519586938492637b5e477f60e11b84526004840152602483015260018060a01b03165afa90811561052e578091610846575b60208260ff60405191168152f35b90506020823d60201161087b575b81610861602093836155f6565b8101031261033857506108756020916157a8565b38610838565b3d9150610854565b63b4fa3fb360e01b8352600483fd5b90506020813d6020116108c4575b816108ad602093836155f6565b81010312610401576108be9061567a565b386107f8565b3d91506108a0565b90506020813d6020116108fe575b816108e7602093836155f6565b81010312610401576108f89061567a565b386107b7565b3d91506108da565b63028c4d0760e01b8352600483fd5b5034610338576020366003190112610338576004356001600160401b03811161052a5761094690369060040161548d565b61094e615913565b50604051636b366cb560e01b81527f00000000000000000000000000000000000000000000000000000000000000006001600160a01b031690602081600481855afa908115610b5b578591610ba4575b50604051632474521560e21b81526004810191909152336024820152602081604481855afa908115610b5b578591610b66575b50159081610a83575b50610a745760ff60055460a01c1615610906576002546040516376bd6c1360e11b81526020600482015292849284926001600160a01b03169183918291610a25916024840191615878565b03915afa90811561033b57826104e19392610a51575b505060405191829160208352602083019061553b565b610a6d92503d8091833e610a6581836155f6565b8101906159f1565b3880610a3b565b631a27eac360e11b8352600483fd5b604051631d6c8e3f60e21b8152909150602081600481855afa908115610b5b578591610b27575b50604051632474521560e21b815260048101919091523360248201529060209082908180604481015b03915afa90811561040d578491610aed575b5015386109da565b90506020813d602011610b1f575b81610b08602093836155f6565b8101031261040157610b199061567a565b38610ae5565b3d9150610afb565b90506020813d602011610b53575b81610b42602093836155f6565b810103126104435751610ad3610aaa565b3d9150610b35565b6040513d87823e3d90fd5b90506020813d602011610b9c575b81610b81602093836155f6565b81010312610b9857610b929061567a565b386109d1565b8480fd5b3d9150610b74565b90506020813d602011610bcf575b81610bbf602093836155f6565b810103126104435751602061099e565b3d9150610bb2565b5034610338578060031936011261033857600154604051631d6c8e3f60e21b81526001600160a01b0390911690602081600481855afa9081156103b5578391610d88575b50604051632474521560e21b81526004810191909152336024820152602081604481855afa9081156103b5578391610d4e575b5015610d3f57602060049160405192838092635c975abb60e01b82525afa90811561033b578291610d05575b50610cf65760ff60055460a01c1615610ce757807f00000000000000000000000000000000000000000000000000000000000000006001600160a01b0316803b15610ce457818091600460405180948193638456cb5960e01b83525af1801561033b576103275750f35b50fd5b63028c4d0760e01b8152600490fd5b6301ca793160e61b8152600490fd5b90506020813d602011610d37575b81610d20602093836155f6565b8101031261052a57610d319061567a565b38610c7a565b3d9150610d13565b637bfa4b9f60e01b8252600482fd5b90506020813d602011610d80575b81610d69602093836155f6565b810103126103a957610d7a9061567a565b38610c4e565b3d9150610d5c565b90506020813d602011610db3575b81610da3602093836155f6565b8101031261044357516020610c1b565b3d9150610d96565b50346103385780600319360112610338576020600654604051908152f35b50346103385760203660031901126103385760015460405163f7be43fb60e01b815260048035926001600160a01b03169190602090829081855afa90811561040d578491611069575b50604051632474521560e21b81526004810191909152336024820152602081604481855afa90811561040d57849161102f575b501561102057602060049160405192838092635c975abb60e01b82525afa9081156103b5578391610fe6575b506103685760ff60055460a01c16156103595760025460405163095f7b8960e01b815233600482015290602090829060249082906001600160a01b03165afa9081156103b5578391610fac575b5015610f9d576003546040516301a5a06760e11b81526004810183905290602090829060249082906001600160a01b03165afa9081156103b5578391610f63575b501561034a576004548291906001600160a01b0316803b1561034657604051635855570360e11b8152600481019290925233602483015282908290818381604481015b03925af1801561033b576103275750f35b90506020813d602011610f95575b81610f7e602093836155f6565b810103126103a957610f8f9061567a565b38610f0f565b3d9150610f71565b631a27eac360e11b8252600482fd5b90506020813d602011610fde575b81610fc7602093836155f6565b810103126103a957610fd89061567a565b38610ece565b3d9150610fba565b90506020813d602011611018575b81611001602093836155f6565b810103126103a9576110129061567a565b38610e81565b3d9150610ff4565b63971730a960e01b8352600483fd5b90506020813d602011611061575b8161104a602093836155f6565b810103126104015761105b9061567a565b38610e55565b3d915061103d565b90506020813d602011611094575b81611084602093836155f6565b8101031261044357516020610e22565b3d9150611077565b5034610338578060031936011261033857604051636b366cb560e01b81527f00000000000000000000000000000000000000000000000000000000000000006001600160a01b031690602081600481855afa9081156103b557839161137f575b50604051632474521560e21b81526004810191909152336024820152602081604481855afa9081156103b5578391611345575b5015908161126d575b5061053a5760ff60055460a01c1615610ce757600480546040516302f58a6960e61b815291839183919082906001600160a01b03165afa90811561033b5782916111ce575b5090604051918291602083016020845282518091526020604085019301915b8181106111aa575050500390f35b91935091602060a0826111c060019488516153a0565b01940191019184939261119c565b90503d8083833e6111df81836155f6565b8101906020818303126103a9578051906001600160401b038211610401570181601f820112156103a957805161121481615791565b9261122260405194856155f6565b818452602060a081860193028401019281841161126957602001915b83831061124f57505050503861117d565b602060a09161125e8486615739565b81520192019161123e565b8580fd5b604051631d6c8e3f60e21b8152909150602081600481855afa9081156103b5578391611311575b50604051632474521560e21b815260048101919091523360248201529060209082908180604481015b03915afa90811561033b5782916112d7575b501538611138565b90506020813d602011611309575b816112f2602093836155f6565b8101031261052a576113039061567a565b386112cf565b3d91506112e5565b90506020813d60201161133d575b8161132c602093836155f6565b8101031261044357516112bd611294565b3d915061131f565b90506020813d602011611377575b81611360602093836155f6565b810103126103a9576113719061567a565b3861112f565b3d9150611353565b90506020813d6020116113aa575b8161139a602093836155f6565b81010312610443575160206110fc565b3d915061138d565b5034610338576020366003190112610338576113cc61542d565b600154604051631d6c8e3f60e21b81526001600160a01b0390911690602081600481855afa90811561040d578491611554575b50604051632474521560e21b81526004810191909152336024820152602081604481855afa90811561040d57849161151a575b50156103c057602060049160405192838092635c975abb60e01b82525afa9081156103b55783916114e0575b506103685760ff60055460a01c1615610359576001600160a01b0316801561034a5781907f00000000000000000000000000000000000000000000000000000000000000006001600160a01b031690813b1561034657829160248392604051948593849263bd06ea1960e01b845260048401525af1801561033b576103275750f35b90506020813d602011611512575b816114fb602093836155f6565b810103126103a95761150c9061567a565b3861145e565b3d91506114ee565b90506020813d60201161154c575b81611535602093836155f6565b81010312610401576115469061567a565b38611432565b3d9150611528565b90506020813d60201161157f575b8161156f602093836155f6565b81010312610443575160206113ff565b3d9150611562565b5034610338576060366003190112610338576115a161542d565b90602435916044359060ff82168092036103a957604051636b366cb560e01b81527f00000000000000000000000000000000000000000000000000000000000000006001600160a01b031690602081600481855afa908115610b5b578591611953575b50604051632474521560e21b81526004810191909152336024820152602081604481855afa908115610b5b578591611919575b50159081611841575b50610a7457600154604051635c975abb60e01b815290602090829060049082906001600160a01b03165afa90811561040d578491611807575b506117f8576005549360ff8560a01c16156117e95760025460405163c3c5a54760e01b81526001600160a01b039384166004820181905293909160209183916024918391165afa908115610b5b5785916117af575b5015611766576003546040516301a5a06760e11b81526004810183905290602090829060249082906001600160a01b03165afa908115610b5b578591611775575b50156117665792938493906001600160a01b0316803b15610b98578492836084926040519687958694632a4a73fb60e01b86526004860152602485015260448401523360648401525af1801561033b576103275750f35b63b4fa3fb360e01b8452600484fd5b90506020813d6020116117a7575b81611790602093836155f6565b81010312610b98576117a19061567a565b3861170f565b3d9150611783565b90506020813d6020116117e1575b816117ca602093836155f6565b81010312610b98576117db9061567a565b386116ce565b3d91506117bd565b63028c4d0760e01b8452600484fd5b6301ca793160e61b8352600483fd5b90506020813d602011611839575b81611822602093836155f6565b81010312610401576118339061567a565b38611679565b3d9150611815565b604051631d6c8e3f60e21b8152909150602081600481855afa908115610b5b5785916118e5575b50604051632474521560e21b815260048101919091523360248201529060209082908180604481015b03915afa90811561040d5784916118ab575b501538611640565b90506020813d6020116118dd575b816118c6602093836155f6565b81010312610401576118d79061567a565b386118a3565b3d91506118b9565b90506020813d602011611911575b81611900602093836155f6565b810103126104435751611891611868565b3d91506118f3565b90506020813d60201161194b575b81611934602093836155f6565b81010312610b98576119459061567a565b38611637565b3d9150611927565b90506020813d60201161197e575b8161196e602093836155f6565b8101031261044357516020611604565b3d9150611961565b5034610338578060031936011261033857604051636b366cb560e01b81527f00000000000000000000000000000000000000000000000000000000000000006001600160a01b031690602081600481855afa9081156103b5578391611c97575b50604051632474521560e21b81526004810191909152336024820152602081604481855afa9081156103b5578391611c5d575b50159081611b85575b5061053a5760ff60055460a01c1615610ce75760025460405163ae9af89d60e01b8152908290829060049082906001600160a01b03165afa90811561033b578291611acf575b50906040519182916020830160208452825180915260408401602060408360051b870101940192905b828210611aa057505050500390f35b91936001919395506020611abf8192603f198a8203018652885161553b565b9601920192018594939192611a91565b90503d8083833e611ae081836155f6565b8101906020818303126103a9578051906001600160401b03821161040157019080601f830112156103a957815191611b1783615791565b92611b2560405194856155f6565b80845260208085019160051b830101918383116112695760208101915b838310611b5457505050505038611a68565b82516001600160401b038111611b8157602091611b7687848094870101615947565b815201920191611b42565b8780fd5b604051631d6c8e3f60e21b8152909150602081600481855afa9081156103b5578391611c29575b50604051632474521560e21b815260048101919091523360248201529060209082908180604481015b03915afa90811561033b578291611bef575b501538611a22565b90506020813d602011611c21575b81611c0a602093836155f6565b8101031261052a57611c1b9061567a565b38611be7565b3d9150611bfd565b90506020813d602011611c55575b81611c44602093836155f6565b810103126104435751611bd5611bac565b3d9150611c37565b90506020813d602011611c8f575b81611c78602093836155f6565b810103126103a957611c899061567a565b38611a19565b3d9150611c6b565b90506020813d602011611cc2575b81611cb2602093836155f6565b81010312610443575160206119e6565b3d9150611ca5565b503461033857602036600319011261033857604051636b366cb560e01b81527f00000000000000000000000000000000000000000000000000000000000000006001600160a01b031690602081600481855afa9081156103b5578391611f40575b50604051632474521560e21b81526004810191909152336024820152602081604481855afa9081156103b5578391611f06575b50159081611e2e575b5061053a57600154604051635c975abb60e01b815290602090829060049082906001600160a01b03165afa90811561033b578291611df4575b50610cf65760ff60055460a01c1615610ce75760045481906001600160a01b0316803b15610ce45760405163c4bf6ecb60e01b81526004803590820152336024820152908290829081838160448101610f52565b90506020813d602011611e26575b81611e0f602093836155f6565b8101031261052a57611e209061567a565b38611da0565b3d9150611e02565b604051631d6c8e3f60e21b8152909150602081600481855afa9081156103b5578391611ed2575b50604051632474521560e21b815260048101919091523360248201529060209082908180604481015b03915afa90811561033b578291611e98575b501538611d67565b90506020813d602011611eca575b81611eb3602093836155f6565b8101031261052a57611ec49061567a565b38611e90565b3d9150611ea6565b90506020813d602011611efe575b81611eed602093836155f6565b810103126104435751611e7e611e55565b3d9150611ee0565b90506020813d602011611f38575b81611f21602093836155f6565b810103126103a957611f329061567a565b38611d5e565b3d9150611f14565b90506020813d602011611f6b575b81611f5b602093836155f6565b8101031261044357516020611d2b565b3d9150611f4e565b503461033857602036600319011261033857611f8d61542d565b611f95615913565b5060ff60055460a01c1615610359576001600160a01b03163381141580612114575b80612014575b610f9d576002546040516327cf697360e21b815260048101929092528290829060249082906001600160a01b03165afa90811561033b57826104e19392610a5157505060405191829160208352602083019061553b565b50604051631d6c8e3f60e21b81527f00000000000000000000000000000000000000000000000000000000000000006001600160a01b031690602081600481855afa90811561040d5784916120e0575b50604051632474521560e21b815260048101919091523360248201529060209082908180604481015b03915afa9081156103b55783916120a6575b5015611fbd565b90506020813d6020116120d8575b816120c1602093836155f6565b810103126103a9576120d29061567a565b3861209f565b3d91506120b4565b90506020813d60201161210c575b816120fb602093836155f6565b81010312610443575161208d612064565b3d91506120ee565b50604051636b366cb560e01b81527f00000000000000000000000000000000000000000000000000000000000000006001600160a01b031690602081600481855afa90811561040d5784916121e0575b50604051632474521560e21b815260048101919091523360248201529060209082908180604481015b03915afa9081156103b55783916121a6575b5015611fb7565b90506020813d6020116121d8575b816121c1602093836155f6565b810103126103a9576121d29061567a565b3861219f565b3d91506121b4565b90506020813d60201161220c575b816121fb602093836155f6565b81010312610443575161218d612164565b3d91506121ee565b5034610338576040366003190112610338576004359061223261552c565b604051636b366cb560e01b81529092907f00000000000000000000000000000000000000000000000000000000000000006001600160a01b031690602081600481855afa90811561040d5784916124ec575b50604051632474521560e21b81526004810191909152336024820152602081604481855afa90811561040d5784916124b2575b501590816123da575b50610f9d57600154604051635c975abb60e01b815290602090829060049082906001600160a01b03165afa9081156103b55783916123a0575b506103685760ff60055460a01c1615610359578192600014612362576003546001600160a01b0316803b1561034657604051632f29863960e21b8152600481019290925233602483015282908290818381604481015b03925af1801561033b5761032757505080f35b6003546001600160a01b0316803b156103465760405163f6e18fed60e01b81526004810192909252336024830152829082908183816044810161234f565b90506020813d6020116123d2575b816123bb602093836155f6565b810103126103a9576123cc9061567a565b386122f9565b3d91506123ae565b604051631d6c8e3f60e21b8152909150602081600481855afa90811561040d57849161247e575b50604051632474521560e21b815260048101919091523360248201529060209082908180604481015b03915afa9081156103b5578391612444575b5015386122c0565b90506020813d602011612476575b8161245f602093836155f6565b810103126103a9576124709061567a565b3861243c565b3d9150612452565b90506020813d6020116124aa575b81612499602093836155f6565b81010312610443575161242a612401565b3d915061248c565b90506020813d6020116124e4575b816124cd602093836155f6565b81010312610401576124de9061567a565b386122b7565b3d91506124c0565b90506020813d602011612517575b81612507602093836155f6565b8101031261044357516020612284565b3d91506124fa565b50346103385780600319360112610338576004546040516001600160a01b039091168152602090f35b50346103385780600319360112610338576002546040516001600160a01b039091168152602090f35b50346103385780600319360112610338576040517f00000000000000000000000000000000000000000000000000000000000000006001600160a01b03168152602090f35b5034610338576040366003190112610338576125d0615443565b9060ff60055460a01c1615610ce757604051632474521560e21b815260048035908201526001600160a01b039092166024830152602082806044810103817f00000000000000000000000000000000000000000000000000000000000000006001600160a01b03165afa90811561052e578091612655575b6020826040519015158152f35b90506020823d60201161268a575b81612670602093836155f6565b81010312610338575061268460209161567a565b38612648565b3d9150612663565b5034610338576126a1366154ba565b604051636b366cb560e01b81529597969295929491927f00000000000000000000000000000000000000000000000000000000000000006001600160a01b031690602081600481855afa90811561290e578991612953575b50604051632474521560e21b81526004810191909152336024820152602081604481855afa90811561290e578991612919575b50159081612836575b5061282757600154604051635c975abb60e01b815290602090829060049082906001600160a01b03165afa90811561281c5788916127e2575b506127d35760ff60055460a01c16156127c457600354969788976001600160a01b031693843b156127c05788968793610f52926040519a8b998a988997632fa4b72f60e11b8952339660048a01615899565b8880fd5b63028c4d0760e01b8752600487fd5b6301ca793160e61b8752600487fd5b90506020813d602011612814575b816127fd602093836155f6565b81010312611b815761280e9061567a565b3861276e565b3d91506127f0565b6040513d8a823e3d90fd5b631a27eac360e11b8752600487fd5b604051631d6c8e3f60e21b8152909150602081600481855afa90811561290e5789916128da575b50604051632474521560e21b815260048101919091523360248201529060209082908180604481015b03915afa90811561281c5788916128a0575b501538612735565b90506020813d6020116128d2575b816128bb602093836155f6565b81010312611b81576128cc9061567a565b38612898565b3d91506128ae565b90506020813d602011612906575b816128f5602093836155f6565b81010312610443575161288661285d565b3d91506128e8565b6040513d8b823e3d90fd5b90506020813d60201161294b575b81612934602093836155f6565b810103126127c0576129459061567a565b3861272c565b3d9150612927565b90506020813d60201161297e575b8161296e602093836155f6565b81010312610443575160206126f9565b3d9150612961565b5034610338576020366003190112610338576129a061542d565b600154604051631d6c8e3f60e21b81526001600160a01b0390911690602081600481855afa90811561040d578491612b28575b50604051632474521560e21b81526004810191909152336024820152602081604481855afa90811561040d578491612aee575b50156103c057602060049160405192838092635c975abb60e01b82525afa9081156103b5578391612ab4575b506103685760ff60055460a01c1615610359576001600160a01b0316801561034a5781907f00000000000000000000000000000000000000000000000000000000000000006001600160a01b031690813b15610346578291602483926040519485938492630232d68360e61b845260048401525af1801561033b576103275750f35b90506020813d602011612ae6575b81612acf602093836155f6565b810103126103a957612ae09061567a565b38612a32565b3d9150612ac2565b90506020813d602011612b20575b81612b09602093836155f6565b8101031261040157612b1a9061567a565b38612a06565b3d9150612afc565b90506020813d602011612b53575b81612b43602093836155f6565b81010312610443575160206129d3565b3d9150612b36565b50346103385760a0366003190112610338576004356001600160401b03811161052a57612b8c90369060040161548d565b91906024356001600160401b0381116103a957612bad90369060040161548d565b6044929192356001600160401b038111610b9857612bcf90369060040161548d565b90926064356001600160401b038111612e4457612bf090369060040161548d565b92909760843561ffff81168091036127c05760015460405163f7be43fb60e01b81526001600160a01b0390911690602081600481855afa908115612e06578b91612e11575b50604051632474521560e21b81526004810191909152336024820152602081604481855afa908115612e06578b91612dcc575b5015612dbd57602060049160405192838092635c975abb60e01b82525afa908115612db2578a91612d74575b50612d655760ff60055460a01c1615612d565760025498998a996001600160a01b031695863b15612d52578a9889956040519b8c9a8b998a98631da82a6b60e31b8a523360048b015260248a0160e0905260e48a0190612cf392615878565b906003198983030160448a0152612d0992615878565b90600319878303016064880152612d1f92615878565b90600319858303016084860152612d3592615878565b9060a48301523360c483015203925af1801561033b576103275750f35b8a80fd5b63028c4d0760e01b8952600489fd5b6301ca793160e61b8952600489fd5b90506020813d602011612daa575b81612d8f602093836155f6565b81010312612da657612da09061567a565b38612c94565b8980fd5b3d9150612d82565b6040513d8c823e3d90fd5b63971730a960e01b8a5260048afd5b90506020813d602011612dfe575b81612de7602093836155f6565b81010312612d5257612df89061567a565b38612c68565b3d9150612dda565b6040513d8d823e3d90fd5b90506020813d602011612e3c575b81612e2c602093836155f6565b8101031261044357516020612c35565b3d9150612e1f565b8680fd5b5034610338576040366003190112610338576004356001600160401b03811161052a57612e7990369060040161548d565b9190612e8361552c565b9260018060a01b0360015416604051631d6c8e3f60e21b8152602081600481855afa908115610b5b578591613028575b50604051632474521560e21b81526004810191909152336024820152602081604481855afa908115610b5b578591612fee575b5015612fdf57602060049160405192838092635c975abb60e01b82525afa90811561040d578491612fa5575b506117f85760ff60055460a01c1615610906578293600014612f6c576002546001600160a01b031691823b15612f675761234f9284928360405180968195829463e7714a2160e01b84523391600485016158ea565b505050fd5b6002546001600160a01b031691823b15612f675761234f9284928360405180968195829463f384e23f60e01b84523391600485016158ea565b90506020813d602011612fd7575b81612fc0602093836155f6565b8101031261040157612fd19061567a565b38612f12565b3d9150612fb3565b637bfa4b9f60e01b8452600484fd5b90506020813d602011613020575b81613009602093836155f6565b81010312610b985761301a9061567a565b38612ee6565b3d9150612ffc565b90506020813d602011613053575b81613043602093836155f6565b8101031261044357516020612eb3565b3d9150613036565b50346103385760203660031901126103385761307561542d565b600154604051631d6c8e3f60e21b81526001600160a01b0390911690602081600481855afa90811561040d5784916131fd575b50604051632474521560e21b81526004810191909152336024820152602081604481855afa90811561040d5784916131c3575b50156103c057602060049160405192838092635c975abb60e01b82525afa9081156103b5578391613189575b506103685760ff60055460a01c1615610359576001600160a01b0316801561034a5781907f00000000000000000000000000000000000000000000000000000000000000006001600160a01b031690813b15610346578291602483926040519485938492631e311e6360e21b845260048401525af1801561033b576103275750f35b90506020813d6020116131bb575b816131a4602093836155f6565b810103126103a9576131b59061567a565b38613107565b3d9150613197565b90506020813d6020116131f5575b816131de602093836155f6565b81010312610401576131ef9061567a565b386130db565b3d91506131d1565b90506020813d602011613228575b81613218602093836155f6565b81010312610443575160206130a8565b3d915061320b565b503461033857806003193601126103385760ff60055460a01c1615610ce757604051635c975abb60e01b8152906020826004817f00000000000000000000000000000000000000000000000000000000000000006001600160a01b03165afa90811561052e578091612655576020826040519015158152f35b503461033857602036600319011261033857604051636b366cb560e01b81527f00000000000000000000000000000000000000000000000000000000000000006001600160a01b031690602081600481855afa9081156103b557839161351d575b50604051632474521560e21b81526004810191909152336024820152602081604481855afa9081156103b55783916134e3575b5015908161340b575b5061053a57600154604051635c975abb60e01b815290602090829060049082906001600160a01b03165afa90811561033b5782916133d1575b50610cf65760055460ff8160a01c16156103595781906001600160a01b0316803b15610ce45760405163157c4adf60e21b81526004803590820152336024820152908290829081838160448101610f52565b90506020813d602011613403575b816133ec602093836155f6565b8101031261052a576133fd9061567a565b3861337f565b3d91506133df565b604051631d6c8e3f60e21b8152909150602081600481855afa9081156103b55783916134af575b50604051632474521560e21b815260048101919091523360248201529060209082908180604481015b03915afa90811561033b578291613475575b501538613346565b90506020813d6020116134a7575b81613490602093836155f6565b8101031261052a576134a19061567a565b3861346d565b3d9150613483565b90506020813d6020116134db575b816134ca602093836155f6565b81010312610443575161345b613432565b3d91506134bd565b90506020813d602011613515575b816134fe602093836155f6565b810103126103a95761350f9061567a565b3861333d565b3d91506134f1565b90506020813d602011613548575b81613538602093836155f6565b810103126104435751602061330a565b3d915061352b565b5034610338576040366003190112610338576004356001600160401b03811161052a5761358190369060040161548d565b613589615443565b600154604051631d6c8e3f60e21b81526001600160a01b0390911690602081600481855afa9081156137df5786916137ab575b50604051632474521560e21b815260048101919091523360248201529060209082908180604481015b03915afa908115610b5b578591613771575b5015612fdf5760ff60055460a01c16156117e9576001600160a01b03169081156137625760405160208101908285833761364460208285810189838201520301601f1981018352826155f6565b51902060405160208101906e73747564656e74526567697374727960881b8252600f8152613673602f826155f6565b51902081036136ca5750600280546001600160a01b031916831790555b806040519384378201918383528033930390207f508230d9e989b49c651e1c7be29de727f16d9c1027f7660466911e442c3121fb8480a480f35b60405160208101906c31b7bab939b2a6b0b730b3b2b960991b8252600d81526136f4602d826155f6565b51902081036137155750600380546001600160a01b03191683179055613690565b604051602081019070195b9c9bdb1b1b595b9d14995c5d595cdd607a1b8252601181526137436031826155f6565b5190200361176657600480546001600160a01b03191683179055613690565b6303777f6960e51b8452600484fd5b90506020813d6020116137a3575b8161378c602093836155f6565b81010312610b985761379d9061567a565b386135f7565b3d915061377f565b90506020813d6020116137d7575b816137c6602093836155f6565b8101031261044357516135e56135bc565b3d91506137b9565b6040513d88823e3d90fd5b5034610338576137f9366154ba565b604051636b366cb560e01b81529597969295929491927f00000000000000000000000000000000000000000000000000000000000000006001600160a01b031690602081600481855afa90811561290e578991613a64575b50604051632474521560e21b81526004810191909152336024820152602081604481855afa90811561290e578991613a2a575b50159081613952575b5061282757600154604051635c975abb60e01b815290602090829060049082906001600160a01b03165afa90811561281c578891613918575b506127d35760ff60055460a01c16156127c457600354969788976001600160a01b031693843b156127c05788968793610f52926040519a8b998a98899763bc187d9960e01b8952339660048a01615899565b90506020813d60201161394a575b81613933602093836155f6565b81010312611b81576139449061567a565b386138c6565b3d9150613926565b604051631d6c8e3f60e21b8152909150602081600481855afa90811561290e5789916139f6575b50604051632474521560e21b815260048101919091523360248201529060209082908180604481015b03915afa90811561281c5788916139bc575b50153861388d565b90506020813d6020116139ee575b816139d7602093836155f6565b81010312611b81576139e89061567a565b386139b4565b3d91506139ca565b90506020813d602011613a22575b81613a11602093836155f6565b8101031261044357516139a2613979565b3d9150613a04565b90506020813d602011613a5c575b81613a45602093836155f6565b810103126127c057613a569061567a565b38613884565b3d9150613a38565b90506020813d602011613a8f575b81613a7f602093836155f6565b8101031261044357516020613851565b3d9150613a72565b503461033857806003193601126103385760ff60055460a01c1615610ce75760035460405163619311af60e01b8152908290829060049082906001600160a01b03165afa90811561033b578291613b50575b50906040519182916020830160208452825180915260408401602060408360051b870101940192905b828210613b2157505050500390f35b91936001919395506020613b408192603f198a82030186528851615343565b9601920192018594939192613b12565b90503d8083833e613b6181836155f6565b8101906020818303126103a9578051906001600160401b03821161040157019080601f830112156103a957815191613b9883615791565b92613ba660405194856155f6565b80845260208085019160051b830101918383116112695760208101915b838310613bd557505050505038613ae9565b82516001600160401b038111611b8157602091613bf787848094870101615687565b815201920191613bc3565b503461033857602036600319011261033857604051636b366cb560e01b81527f00000000000000000000000000000000000000000000000000000000000000006001600160a01b031690602081600481855afa9081156103b5578391613e78575b50604051632474521560e21b81526004810191909152336024820152602081604481855afa9081156103b5578391613e3e575b50159081613d66575b5061053a57600154604051635c975abb60e01b815290602090829060049082906001600160a01b03165afa90811561033b578291613d2c575b50610cf65760ff60055460a01c1615610ce75760045481906001600160a01b0316803b15610ce457604051632c33a39b60e01b81526004803590820152336024820152908290829081838160448101610f52565b90506020813d602011613d5e575b81613d47602093836155f6565b8101031261052a57613d589061567a565b38613cd8565b3d9150613d3a565b604051631d6c8e3f60e21b8152909150602081600481855afa9081156103b5578391613e0a575b50604051632474521560e21b815260048101919091523360248201529060209082908180604481015b03915afa90811561033b578291613dd0575b501538613c9f565b90506020813d602011613e02575b81613deb602093836155f6565b8101031261052a57613dfc9061567a565b38613dc8565b3d9150613dde565b90506020813d602011613e36575b81613e25602093836155f6565b810103126104435751613db6613d8d565b3d9150613e18565b90506020813d602011613e70575b81613e59602093836155f6565b810103126103a957613e6a9061567a565b38613c96565b3d9150613e4c565b90506020813d602011613ea3575b81613e93602093836155f6565b8101031261044357516020613c63565b3d9150613e86565b5034610338578060031936011261033857600554604051635c975abb60e01b81529160a09190911c60ff169080806020856004817f00000000000000000000000000000000000000000000000000000000000000006001600160a01b03165afa948515614062578195614025575b506006549084613f48575b5060a094604051941515855215156020850152604084015260608301526080820152f35b6002546040516330c6189f60e01b8152969450909250602090869060049082906001600160a01b03165afa801561033b578290613ff2575b60048054604051631c930fa560e01b81529750919391602091889182906001600160a01b03165afa90811561052e5790613fbf575b92945060a0613f24565b506020853d602011613fea575b81613fd9602093836155f6565b810103126104435760a09451613fb5565b3d9150613fcc565b506020853d60201161401d575b8161400c602093836155f6565b810103126104435760049451613f80565b3d9150613fff565b9094506020813d60201161405a575b81614041602093836155f6565b81010312610b9857614053849161567a565b9490613f19565b3d9150614034565b50604051903d90823e3d90fd5b5034610338578060031936011261033857600154604051631d6c8e3f60e21b81526001600160a01b0390911690602081600481855afa9081156103b55783916141a2575b50604051632474521560e21b815260048101919091523360248201529060209082908180604481015b03915afa90811561033b578291614168575b50156141595760ff60055460a01c1615610ce757807f00000000000000000000000000000000000000000000000000000000000000006001600160a01b0316803b15610ce457818091600460405180948193631fa5d41d60e11b83525af1801561033b576103275750f35b637bfa4b9f60e01b8152600490fd5b90506020813d60201161419a575b81614183602093836155f6565b8101031261052a576141949061567a565b386140ee565b3d9150614176565b90506020813d6020116141ce575b816141bd602093836155f6565b8101031261044357516140dc6140b3565b3d91506141b0565b5034610338576080366003190112610338576141f061542d565b6141f8615443565b6044356001600160a01b03811690819003610401576064356001600160a01b0381169290839003610b9857600154604051631d6c8e3f60e21b81526001600160a01b0390911690602081600481855afa90811561440a5787916143d6575b50604051632474521560e21b815260048101919091523360248201529060209082908180604481015b03915afa9081156137df57869161439c575b501561438d576005549360ff8560a01c1661437e576001600160a01b03168015801561436d575b8015614365575b801561435d575b61434e576001600160601b0360a01b600254161760025560018060a01b03166001600160601b0360a01b60035416176003556001600160601b0360a01b6004541617600455600160a01b916affffffffffffffffffffff60a81b161717600555337f6bc0723562497c91d6cc15ca8a46b9cef65f8d2575c8dc4f89eefa2d8e0eb87b8280a280f35b6303777f6960e51b8652600486fd5b5083156142c6565b5082156142bf565b506001600160a01b038216156142b8565b6308cc254760e01b8652600486fd5b637bfa4b9f60e01b8552600485fd5b90506020813d6020116143ce575b816143b7602093836155f6565b81010312611269576143c89061567a565b38614291565b3d91506143aa565b90506020813d602011614402575b816143f1602093836155f6565b81010312610443575161427f614256565b3d91506143e4565b6040513d89823e3d90fd5b50346103385780600319360112610338576003546040516001600160a01b039091168152602090f35b50346103385760203660031901126103385761445861542d565b6005549060ff8260a01c1615610906576001600160a01b03163381141580614653575b80614553575b610a745760405163090cae3160e31b81526004810191909152908290829060249082906001600160a01b03165afa91821561052e57809181936144e9575b6144db836104e186604051938493604085526040850190615459565b9083820360208501526153f6565b915091503d8083833e6144fc81836155f6565b8101916040828403126103385781516001600160401b03811161052a578361452591840161581b565b916020810151916001600160401b03831161033857506144db936104e19261454d92016157b6565b926144bf565b50604051631d6c8e3f60e21b81527f00000000000000000000000000000000000000000000000000000000000000006001600160a01b031690602081600481855afa908115610b5b57859161461f575b50604051632474521560e21b815260048101919091523360248201529060209082908180604481015b03915afa90811561040d5784916145e5575b5015614481565b90506020813d602011614617575b81614600602093836155f6565b81010312610401576146119061567a565b386145de565b3d91506145f3565b90506020813d60201161464b575b8161463a602093836155f6565b8101031261044357516145cc6145a3565b3d915061462d565b50604051636b366cb560e01b81527f00000000000000000000000000000000000000000000000000000000000000006001600160a01b031690602081600481855afa908115610b5b57859161471f575b50604051632474521560e21b815260048101919091523360248201529060209082908180604481015b03915afa90811561040d5784916146e5575b501561447b565b90506020813d602011614717575b81614700602093836155f6565b81010312610401576147119061567a565b386146de565b3d91506146f3565b90506020813d60201161474b575b8161473a602093836155f6565b8101031261044357516146cc6146a3565b3d915061472d565b5034610338578060031936011261033857600154604051631d6c8e3f60e21b81526001600160a01b0390911690602081600481855afa9081156103b5578391614862575b50604051632474521560e21b815260048101919091523360248201529060209082908180604481015b03915afa90811561033b578291614828575b5015614159576006546000198114614814576001018060065533907f91a6488103e1a58022c791b02d87620b0769153c8e8909f74eb8e118385a4cde8380a380f35b634e487b7160e01b82526011600452602482fd5b90506020813d60201161485a575b81614843602093836155f6565b8101031261052a576148549061567a565b386147d2565b3d9150614836565b90506020813d60201161488e575b8161487d602093836155f6565b8101031261044357516147c0614797565b3d9150614870565b503461033857602036600319011261033857600435906005549160ff8360a01c1615610359576003546040516301a5a06760e11b81526004810183905290602090829060249082906001600160a01b03165afa9081156103b5578391614c1a575b501561034a57604051636b366cb560e01b81527f00000000000000000000000000000000000000000000000000000000000000006001600160a01b031690602081600481855afa90811561040d578491614be7575b50604051632474521560e21b81526004810191909152336024820152602081604481855afa90811561040d578491614bad575b50159081614ad5575b50610f9d576040516316e9f51f60e11b81526004810191909152918190839060249082906001600160a01b03165afa80156140625781928291614a1c575b5060405191604083016040845284518091526020606085019501915b8181106149fd5784806104e1888783820360208501526153f6565b82516001600160a01b03168652602095860195909201916001016149e2565b9250503d8082843e614a2e81846155f6565b820160408382031261052a5782516001600160401b0381116103a95783019281601f850112156103a957835193614a6485615791565b94614a7260405196876155f6565b80865260208087019160051b8301019184831161126957602001905b828210614abd575050506020810151906001600160401b03821161040157614ab79291016157b6565b386149c6565b60208091614aca84615725565b815201910190614a8e565b604051631d6c8e3f60e21b8152909150602081600481855afa90811561040d578491614b79575b50604051632474521560e21b815260048101919091523360248201529060209082908180604481015b03915afa9081156103b5578391614b3f575b501538614988565b90506020813d602011614b71575b81614b5a602093836155f6565b810103126103a957614b6b9061567a565b38614b37565b3d9150614b4d565b90506020813d602011614ba5575b81614b94602093836155f6565b810103126104435751614b25614afc565b3d9150614b87565b90506020813d602011614bdf575b81614bc8602093836155f6565b8101031261040157614bd99061567a565b3861497f565b3d9150614bbb565b90506020813d602011614c12575b81614c02602093836155f6565b810103126104435751602061494c565b3d9150614bf5565b90506020813d602011614c4c575b81614c35602093836155f6565b810103126103a957614c469061567a565b386148f7565b3d9150614c28565b503461033857806003193601126103385760049060ff60055460a01c1615614ce4578154604051631c930fa560e01b81529260209184919082906001600160a01b03165afa90811561052e5790614cb1575b602090604051908152f35b506020813d602011614cdc575b81614ccb602093836155f6565b810103126104435760209051614ca6565b3d9150614cbe565b63028c4d0760e01b8152fd5b503461033857602036600319011261033857806080604051614d11816155db565b828152826020820152826040820152826060820152015260ff60055460a01c1615610ce75760249060a0600180821b036004541660405193848092630655d61960e21b825260043560048301525afa918215614062578192614f9f575b5081516001600160a01b031633141580614e9f575b80614d9f575b61053a5760a082614d9d60405180926153a0565bf35b50604051631d6c8e3f60e21b81527f00000000000000000000000000000000000000000000000000000000000000006001600160a01b031690602081600481855afa9081156103b5578391614e6b575b50604051632474521560e21b815260048101919091523360248201529060209082908180604481015b03915afa90811561033b578291614e31575b5015614d89565b90506020813d602011614e63575b81614e4c602093836155f6565b8101031261052a57614e5d9061567a565b38614e2a565b3d9150614e3f565b90506020813d602011614e97575b81614e86602093836155f6565b810103126104435751614e18614def565b3d9150614e79565b50604051636b366cb560e01b81527f00000000000000000000000000000000000000000000000000000000000000006001600160a01b031690602081600481855afa9081156103b5578391614f6b575b50604051632474521560e21b815260048101919091523360248201529060209082908180604481015b03915afa90811561033b578291614f31575b5015614d83565b90506020813d602011614f63575b81614f4c602093836155f6565b8101031261052a57614f5d9061567a565b38614f2a565b3d9150614f3f565b90506020813d602011614f97575b81614f86602093836155f6565b810103126104435751614f18614eef565b3d9150614f79565b90915060a03d60a011614fd3575b614fb781836155f6565b810160a0828203126103a957614fcc91615739565b9038614d6e565b503d614fad565b50346103385760203660031901126103385760015460405163f7be43fb60e01b81526001600160a01b0390911690602081600481855afa9081156103b557839161516d575b50604051632474521560e21b81526004810191909152336024820152602081604481855afa9081156103b5578391615133575b501561512457602060049160405192838092635c975abb60e01b82525afa90811561033b5782916150ea575b50610cf65760ff60055460a01c1615610ce7576004546001600160a01b0316803b1561052a57604051634c0adda960e01b8152600480359082015233602482015290829081908390604490829084905af18015614062576150dc5780f35b6150e5916155f6565b388180f35b90506020813d60201161511c575b81615105602093836155f6565b8101031261052a576151169061567a565b3861507e565b3d91506150f8565b63971730a960e01b8252600482fd5b90506020813d602011615165575b8161514e602093836155f6565b810103126103a95761515f9061567a565b38615052565b3d9150615141565b90506020813d602011615198575b81615188602093836155f6565b810103126103a95751602061501f565b3d915061517b565b50346103385780600319360112610338576001546040516001600160a01b039091168152602090f35b5034610338576020366003190112610338578060a06040516151ea816155aa565b8281526060602082015260606040820152826060820152826080820152015260ff60055460a01c1615610ce757600354604051630b91e28d60e01b8152600480359082015291908190839060249082906001600160a01b03165afa90811561052e578091615269575b604051602080825281906104e190820185615343565b90503d8082843e61527a81846155f6565b82019160208184031261052a578051916001600160401b0383116103385750916152a8916104e19301615687565b38615253565b50346103385780600319360112610338576005546040516001600160a01b039091168152602090f35b90503461052a578160031936011261052a5760209060ff60055460a01c1615158152f35b60005b83811061530e5750506000910152565b81810151838201526020016152fe565b90602091615337815180928185528580860191016152fb565b601f01601f1916010190565b908151815260a080615379615367602086015160c0602087015260c086019061531e565b6040860151858203604087015261531e565b9361ffff606082015116606085015261ffff60808201511660808501520151151591015290565b80516001600160a01b0316825260208082015190830152604081015160048110156153e05760809182916040850152606081015160608501520151910152565b634e487b7160e01b600052602160045260246000fd5b906020808351928381520192019060005b8181106154145750505090565b825160ff16845260209384019390920191600101615407565b600435906001600160a01b038216820361044357565b602435906001600160a01b038216820361044357565b906020808351928381520192019060005b8181106154775750505090565b825184526020938401939092019160010161546a565b9181601f84011215610443578235916001600160401b038311610443576020838186019501011161044357565b9060a060031983011261044357600435916024356001600160401b03811161044357816154e99160040161548d565b92909291604435906001600160401b0382116104435761550b9160040161548d565b909160643560ff81168103610443579060843561ffff811681036104435790565b60243590811515820361044357565b9060a08061559161557f61556d61555b875160c0885260c088019061531e565b6020880151878203602089015261531e565b6040870151868203604088015261531e565b6060860151858203606087015261531e565b9361ffff60808201511660808501520151151591015290565b60c081019081106001600160401b038211176155c557604052565b634e487b7160e01b600052604160045260246000fd5b60a081019081106001600160401b038211176155c557604052565b90601f801991011681019081106001600160401b038211176155c557604052565b81601f820112156104435780516001600160401b0381116155c5576040519261564a601f8301601f1916602001856155f6565b818452602082840101116104435761566891602080850191016152fb565b90565b519061ffff8216820361044357565b5190811515820361044357565b91909160c08184031261044357604051906156a1826155aa565b81938151835260208201516001600160401b03811161044357816156c6918401615617565b60208401526040820151906001600160401b03821161044357826156f360a0949261572094869401615617565b60408601526157046060820161566b565b60608601526157156080820161566b565b60808601520161567a565b910152565b51906001600160a01b038216820361044357565b91908260a091031261044357604051615751816155db565b809261575c81615725565b825260208101516020830152604081015160048110156104435760809182916040850152606081015160608501520151910152565b6001600160401b0381116155c55760051b60200190565b519060ff8216820361044357565b9080601f830112156104435781516157cd81615791565b926157db60405194856155f6565b81845260208085019260051b82010192831161044357602001905b8282106158035750505090565b60208091615810846157a8565b8152019101906157f6565b9080601f8301121561044357815161583281615791565b9261584060405194856155f6565b81845260208085019260051b82010192831161044357602001905b8282106158685750505090565b815181526020918201910161585b565b908060209392818452848401376000828201840152601f01601f1916010190565b96929360a0969998956158c360ff9461ffff976158d1958c5260c060208d015260c08c0191615878565b9189830360408b0152615878565b97166060860152166080840152600180831b0316910152565b9160209161590391959495604085526040850191615878565b6001600160a01b03909416910152565b60405190615920826155aa565b600060a0836060815260606020820152606060408201526060808201528260808201520152565b91909160c0818403126104435760405190615961826155aa565b819381516001600160401b038111610443578161597f918401615617565b835260208201516001600160401b03811161044357816159a0918401615617565b602084015260408201516001600160401b03811161044357816159c4918401615617565b60408401526060820151906001600160401b038211610443578261570460a0949261572094869401615617565b906020828203126104435781516001600160401b03811161044357615668920161594756fea26469706673582212209455a7120f885612ba4cd84049673f42e04b0a9785170aad7469da16ac7c48a864736f6c634300081c0033",
  "linkReferences": {},
  "deployedLinkReferences": {}
}